:020000040800F2
:100000000816002045010008410F0008430F0008B2
:10001000470F00084B0F00084F0F000800000000BA
:10002000000000000000000000000000530F000866
:10003000550F000800000000570F0008590F000876
:100040005F0100085F0100085F0100085F01000810
:100050005F0100085F0100085F0100085F01000800
:100060005F0100085F0100085F0100085F010008F0
:100070005F0100085F0100085F0100085F010008E0
:100080005F0100085F0100085F0100085F010008D0
:100090005F0100085F0100085F0100085F010008C0
:1000A0005F0100085F0100085F0100085F010008B0
:1000B0005F0100085F0100085F0100085F010008A0
:1000C0005F0100085F0100085F0100085F01000890
:1000D0005F0100085F0100085F010008610F000870
:1000E0005F0100085F0100085F0100085F01000870
:1000F0005F0100085F0100085F0100085F01000860
:100100005F0100085F0100085F0100085F0100084F
:100110005F0100085F0100085F0100085F0100083F
:100120005F0100085F0100085F0100085F0100082F
:10013000DFF80CD002F048F9004800472D0F000806
:10014000081600200648804706480047FEE7FEE7FD
:10015000FEE7FEE7FEE7FEE7FEE7FEE7FEE7FEE777
:1001600047020008310100080CB500200190009002
:100170006C48006840F480306A49086000BF6948F4
:10018000006800F4003000900198401C0190009835
:1001900018B90198B0F5A06FF1D16248006800F479
:1001A000003010B10120009001E000200090009884
:1001B000012843D15C48006840F010005A490860AB
:1001C0000846006820F0030008600846006840F018
:1001D0000200086053484068524948600846406839
:1001E00048600846406840F48060486008464068BF
:1001F00020F47C1048600846406840F4E8104860ED
:100200000846006840F08070086000BF45480068FC
:1002100000F000700028F9D04248406820F0030048
:10022000404948600846406840F00200486000BF0E
:100230003C48406800F00C000828F9D10CBD10B50E
:10024000FFF792FF10BD10B53648006840F001007E
:1002500034490860084640683449084031494860DC
:1002600008460068324908402E4908600846006880
:1002700020F4802008600846406820F4FE004860B2
:100280004FF41F008860FFF7DAFF4FF00060294944
:10029000086010BD10B5002100200022214B5B68D2
:1002A00003F00C0121B1042906D0082928D107E068
:1002B000214B224C236027E01F4B204C236023E07E
:1002C000184B5B6803F47010164B5B6803F48032C4
:1002D000022303EB904022B9194B4343174C236090
:1002E0000DE0104B5B6803F4003323B1144B434320
:1002F000124C236003E0104B4343104C236003E097
:100300000D4B0E4C236000BF00BF064B5B68C3F370
:1003100003130C4CE15C094B1B68CB40074C23607A
:1003200010BD000000100240002002400000FFF855
:10033000FFFFF6FE08ED00E000127A00000000204A
:1003400000093D000400002031490143314A116099
:10035000704770B5002100230F22C47804B32D4CE0
:10036000246804F4E064C4F5E064210AC1F10403E4
:10037000CA40447804FA03F1847814402143090107
:10038000254C0678A155047804F01F050124AC40E3
:1003900005786D11AD0005F1E025C5F8004109E0D3
:1003A000047804F01F050124AC401C4D067876113A
:1003B00045F8264070BD1A4A0A400243154B1B1FE0
:1003C0001A60704739B1134A121D12680243114B6B
:1003D0001B1D1A6006E00F4A121D126882430D4B66
:1003E0001B1D1A607047042808D14FF0E0210969ED
:1003F00041F004014FF0E022116107E04FF0E021ED
:10040000096921F004014FF0E022116170470000FA
:100410000000FA050CED00E000E400E080E100E0FF
:1004200080FFFF1F10B50446CC48844208D101214B
:10043000042000F02DFB0021042000F029FB46E001
:10044000C748844208D10121082000F021FB002187
:10045000082000F01DFB3AE0C248844208D1012187
:10046000102000F015FB0021102000F011FB2EE001
:10047000BD48844208D10121202000F009FB002161
:10048000202000F005FB22E0B848844208D1012179
:10049000402000F0FDFA0021402000F0F9FA16E0BB
:1004A000B348844208D10121802000F0F1FA0021F4
:1004B000802000F0EDFA0AE0AE48844207D1012125
:1004C000801500F0E5FA0021A01500F0E1FA10BD5A
:1004D00010B50121084600F0DBFA0021012000F0F0
:1004E000D7FA10BD2DE9F041024600250026002074
:1004F00000230024002791F803C00CF00F0591F8A9
:1005000003C00CF0100CBCF1000F03D091F802C036
:100510004CEA050591F800C0BCF1000F31D0146819
:1005200000202BE04FF0010C0CFA00F3B1F800C0F2
:100530000CEA03069E4220D183004FF00F0C0CFA08
:1005400003F7BC4305FA03FC4CEA040491F803C02A
:10055000BCF1280F06D14FF0010C0CFA00FCC2F8D8
:1005600014C00AE091F803C0BCF1480F05D14FF068
:10057000010C0CFA00FCC2F810C0401C0828D1D3B2
:100580001460B1F800C0BCF1FF0F34DD54680020E6
:100590002EE000F1080C4FF0010808FA0CF3B1F856
:1005A00000C00CEA03069E4221D183004FF00F0CDD
:1005B0000CFA03F7BC4305FA03FC4CEA040491F877
:1005C00003C0BCF1280F05D100F1080C08FA0CF8A3
:1005D000C2F8148091F803C0BCF1480F07D100F1B4
:1005E000080C4FF0010808FA0CF8C2F81080401C03
:1005F0000828CED35460BDE8F0814FF6FF7101802A
:10060000022181700421C170704702460020936866
:100610000B400BB1012000E00020704701468868C4
:1006200080B2704702460020D3680B400BB1012016
:1006300000E0002070470146C86880B27047016141
:100640007047416170470AB1016100E04161704744
:10065000C16070474FF480320A43826181618261D8
:1006600082698269704702460020434B18684FF642
:100670008073184040EA021008433F4B18607047EF
:100680003E49C8617047F0B50A46002300240021A6
:10069000002500F00046B6F1004F02D1364EF16958
:1006A00001E0354E7168C0F3034583B200F4401693
:1006B000B6F5401F08D121F070612F4E766826F004
:1006C00070662D4F7E6012E000F48016B6F5801F34
:1006D00006D1032606FA05F4A14341F0706106E055
:1006E000460D360103FA06F6B14341F0706122B1BE
:1006F000460D360103FA06F6314300F00046B6F126
:10070000004F02D11C4EF16101E01B4E7160F0BD43
:1007100030B500228B071C0F0F2303FA04F2164B8F
:1007200008338C1053F824309343134C08348D1045
:1007300044F8253023468C1053F824308C07240FBE
:1007400000FA04F423430C4C08348D1044F825308F
:1007500030BD0A49DC3108607047000000080140E4
:10076000000C01400010014000140140001801403D
:10077000001C014000200140000001400000204218
:10078000DF48006840F00100DD4908600846406825
:10079000DC490840DA49486008460068DA49084000
:1007A000D74908600846006820F4802008600846A1
:1007B000406820F4FE0048604FF41F0088607047D6
:1007C000CF49096821F48031CD4A1160114609688A
:1007D00021F480211160B0F5803F03D0B0F5802F67
:1007E0000ED106E0C649096841F48031C44A11605F
:1007F00007E0C349096841F4A021C14A116000E043
:1008000000BF00BF704710B5014600220023002042
:100810004A11012A02D1BA4C236806E0022A02D109
:10082000B74C236A01E0B64C636A01F01F02012451
:1008300094401C400CB1012000E0002010BD38B5F0
:10084000002000900024002500BF3120FFF7DBFFCF
:1008500005460098401C00900098B0F5A06F01D0AC
:10086000002DF2D03120FFF7CEFF08B1012400E0C7
:100870000024204638BD01460020A14A106820F01F
:10088000F80040EAC10010607047A0490860704756
:10089000024600209A4B586820F47C1042EA01037B
:1008A0001843974B5860704798490866704701464F
:1008B0000020934A506820F00300084350607047BE
:1008C0008F48406800F00C007047014600208C4AB9
:1008D000506820F0F0000843506070470146002047
:1008E000874A506820F4E060084350607047014632
:1008F0000020834A506820F4605040EAC1005060F4
:10090000704729B17E4A527A02437D4B5A7204E005
:100910007B4A527A82437A4B5A7270477B49D8316C
:100920000860704701460020754A506820F4404036
:100930000843506070470021714A20321170704A9C
:1009400082F82010012802D004280AD104E00121F5
:100950006B4A2032117005E00521694A203211707E
:1009600000E000BF00BF70476949086070476449F4
:10097000096A0143624A1162704765494439086057
:10098000704730B500210022002400235C4D6D68C3
:1009900005F00C0121B1042905D0082923D105E077
:1009A0005C4D056022E05B4D05601FE0544D6D68B5
:1009B00005F47012524D6D6805F48034022505EB84
:1009C00092421CB9544D554305600BE04C4D6D6887
:1009D00005F400351DB1504D5543056002E04D4D05
:1009E0005543056002E04B4D056000BF00BF444D1C
:1009F0006D6805F0F0010909484D6B5C0568DD4044
:100A000045603F4D6D6805F4E061090A434D6B5C3C
:100A10004568DD4085603A4D6D6805F46051C90A4E
:100A20003E4D6B5C4568DD40C560354D6D6805F435
:100A30004041890B3A4D6B5CC568B5FBF3F5056128
:100A400030BD29B12E4A526902432D4B5A6104E050
:100A50002B4A526982432A4B5A61704729B1284A6E
:100A600092690243264B9A6104E0254A92698243C7
:100A7000234B9A61704729B1214AD2690243204B26
:100A8000DA6104E01E4AD26982431D4BDA61704785
:100A900029B11B4AD2680243194BDA6004E0184AB4
:100AA000D2688243164BDA60704729B1144A126942
:100AB0000243134B1A6104E0114A12698243104B3E
:100AC0001A61704712494039086070470F49C8647D
:100AD00070470B49C87170470948406A40F0807000
:100AE00007494862704701460020054A92680A405B
:100AF0000AB1012000E00020704701498872704768
:100B0000001002400000FFF8FFFFF6FE0000424226
:100B10008004424200127A0000093D0014000020C7
:100B20002400002010B50446FB48844209D101216D
:100B30008803FFF7ADFF00214FF48040FFF7A8FFC7
:100B400032E0F648844209D101214804FFF7ADFFA5
:100B500000214FF40030FFF7A8FF25E0F048844261
:100B600009D101218804FFF7A0FF00214FF4802064
:100B7000FFF79BFF18E0EB48844209D10121C8042C
:100B8000FFF793FF00214FF40020FFF78EFF0BE0EB
:100B9000E548844208D101210805FFF786FF0021BE
:100BA0004FF48010FFF781FF10BD2DE9F04786B0AC
:100BB00005460E460024A24600BFA1460027B08984
:100BC00000B100BF2F462C8A4CF6FF700440F0881D
:100BD00004432C82AC894EF6F3100440B08831896E
:100BE0000843718908430443AC81AC8A4FF6FF4047
:100BF0000440B0890443AC8201A8FFF7C2FEC64896
:100C0000874202D1DDF810A001E0DDF80CA0A88930
:100C100000F4004040B10AEBCA0000EB0A10316852
:100C20004900B0FBF1F807E00AEBCA0000EB0A103C
:100C300031688900B0FBF1F86420B8FBF0F00401E2
:100C40002009642101FB1089A88900F4004040B10B
:100C5000322000EBC900B0FBF1F000F007000443C4
:100C600008E0322000EB09106421B0FBF1F000F045
:100C70000F0004432C8106B0BDE8F0874FF41651F5
:100C8000016000218180C18001810C21418100210E
:100C90008181704710B502460020108A4FF2FF0391
:100CA00018400B884C8823438C882343CC882343EB
:100CB0001843108210BD0021018041808180C180D5
:100CC000704721B1828942F40052828104E0828916
:100CD0004DF6FF731A4082817047F0B50346002439
:100CE00000260025002040F66A17B94200D100BF57
:100CF0001846C1F3421401F01F06012707FA06F552
:100D0000012C01D10C3004E0022C01D1103000E0A4
:100D100014301AB107682F43076002E00768AF4339
:100D20000760F0BD1AB1838A0B43838202E0838A95
:100D30008B4383827047028A4FF6F0731A40028217
:100D4000028A0A430282704782894FF2FF731A4077
:100D5000828182890A438281704721B1828942F06F
:100D60000202828104E082894FF6FD731A4082817B
:100D70007047028A4FF6DF731A400282028A0A43E2
:100D80000282704721B1028A42F48042028204E06A
:100D9000028A4BF6FF731A4002827047C1F30802C1
:100DA0008280704701468888C0F3080070478189B7
:100DB00041F0010181817047028BD2B20283028B24
:100DC00042EA012202837047028B02F47F420283CF
:100DD000028B0A430283704721B1828A42F02002CB
:100DE000828204E0828A4FF6DF731A408282704763
:100DF00021B1828A42F01002828204E0828A4FF698
:100E0000EF731A408282704721B1828A42F0080251
:100E1000828204E0828A4FF6F7731A40828270471A
:100E200021B1828942F40042828103E08289C2F3C7
:100E30000E028281704721B1828A42F4006282826E
:100E400004E0828A4FF2FF731A4082827047828ADE
:100E50004FF6FB731A408282828A0A43828270476D
:100E600021B1828A42F00202828204E0828A4FF635
:100E7000FD731A408282704702460020B1F5007F60
:100E800000D100BF13880B400BB1012000E000200F
:100E9000704701F40072B2F5007F00D100BFCA4371
:100EA0000280704770B50246002400230025002010
:100EB00040F66A16B14200D100BFC1F3421501F0FD
:100EC0001F03012606FA03F3012D02D19689334050
:100ED00006E0022D02D1168A334001E0968A3340A3
:100EE0000C12012606FA04F41688344013B10CB132
:100EF000012000E0002070BD10B50022002340F664
:100F00006A14A14200D100BF0A1201249440A3B286
:100F1000DC43048010BD0000003801400044004064
:100F200000480040004C00400050004000F068F8CD
:100F300000F0D2F800F0A7F901F076F900BFFEE763
:100F4000704700BFFEE700BFFEE700BFFEE700BF3F
:100F5000FEE770477047704710B500F004F910BD08
:100F600010B540F225512048FFF79CFFD8B11E482C
:100F7000FFF718FFC4B21D48B0F8B80BC0F30E005D
:100F800040F6B73188420EDA1849B1F8B81BC1F300
:100F90000E00411C154AB2F8B82B61F30E0213493A
:100FA000A1F8B82B0C5440F224410F48FFF77AFF08
:100FB000012817D10D48B0F8B80B20F4004000F517
:100FC00000400A49A1F8B80B0748FFF7EBFEC4B28E
:100FD00007A1064801F098F908B1012000E00020BF
:100FE0000649087010BD000000480040680000205D
:100FF000434C4F5345440D0A000000004C000020B4
:1010000000B585B001218803FFF728FD01210420E8
:10101000FFF724FD4FF40070ADF8100018208DF894
:10102000130003208DF8120004A92948FFF75AFA8B
:101030004FF48060ADF8100004208DF8130004A96F
:101040002348FFF74FFA4FF4165000900020ADF8F8
:101050000400ADF80600ADF80800ADF80C000C2057
:10106000ADF80A0069461B48FFF79FFD01211948AA
:10107000FFF727FE05B000BD70B504460D462946B2
:101080002046FFF78BFE00BF80212046FFF7F4FECD
:101090000028F9D070BD70B504460D46E1B20D4888
:1010A000FFF77CFE00BF80210A48FFF7E5FE00281D
:1010B000F9D0204670BD10B5044600BF2021054878
:1010C000FFF7DAFE0028F9D00248FFF76BFE10BDEB
:1010D000000801400038014030B527480068274A21
:1010E000B0FBF2F1B1F1807F01D301201DE021F0CE
:1010F0007F40401E4FF0E022506150170F22002821
:1011000007DA13071D0E1E4B00F00F04241F1D5598
:1011100003E013071C0E1B4B1C5400BF00204FF0B4
:10112000E022906107201061002008B100BFFEE7B7
:101130004FF0E020006920F001004FF0E02108614D
:1011400030BD01B51049009808604FF0E0200069FB
:1011500040F001004FF0E021086100BF0A4800683C
:101160000028FBD108BD0848006820B10648006887
:10117000401E0549086070470000002040420F00F3
:1011800018ED00E000E400E03000002008B54FF466
:10119000A060FFF7D9F827208DF8000000208DF817
:1011A00001008DF8020001208DF803006846FFF76A
:1011B000D0F808BD00B585B001218804FFF75BFCBD
:1011C00001210820FFF74AFC4FF48060ADF81000C1
:1011D00018208DF8130003208DF8120004A9F94897
:1011E000FFF780F94FF40060ADF8100004208DF88F
:1011F000130004A9F348FFF775F94FF4E1300090AC
:101200000020ADF80400ADF80600ADF80800ADF818
:101210000C000C20ADF80A006946EB48FFF7C5FC4E
:10122000012240F22551E848FFF757FD012240F224
:101230002441E548FFF751FDFFF7A8FF0121E248EF
:10124000FFF73FFD05B000BD08B501210802FFF71B
:1012500005FC4FF40050ADF8000010208DF803009D
:1012600003208DF802006946D848FFF73BF90121B9
:101270000820FFF7F3FB0220ADF800006946D148D3
:10128000FFF730F908BD10B5FFF7DEFFFFF792FF5B
:101290000221CC48FFF7D3F94FF40051CB48FFF7B8
:1012A000D0F910BD10B50221C648FFF7CAF9C848E9
:1012B000FFF747FF0221C348FFF7C1F910BD2DE931
:1012C000F04106460C4615461F46C248B0F8B80B1A
:1012D0006FF30E00BF49A1F8B80B3246BEA1BA4861
:1012E00000F069FB1CB915B90120BDE8F0814FF48D
:1012F0007A7107FB01F0FFF724FF0020B549B1F830
:10130000B81BC1F30E01B34A50541146B4A001F00A
:101310006DF8B4B1ADB12146AE4800F0F5FF08B1AB
:10132000012000E0002040B92946AA4800F0ECFF67
:1013300008B1012000E0002008B10120D5E700201D
:10134000D3E744B12146A34800F0DEFF08B10120F5
:10135000CBE70020C9E729469E4800F0D5FF08B139
:101360000120C2E70020C0E710B500240221954803
:10137000FFF765F99B48FFF7E4FE0CE04FF4FA73C2
:10138000002299A199A0FFF79AFF00B110BDFFF7C5
:1013900089FF601CC4B20A2CF0DB00BFF6E710B571
:1013A000044624B1012C0AD0022C18D10FE040F6DB
:1013B000C4138FA28CA191A0FFF781FF10BD40F64E
:1013C000C4138BA288A190A0FFF779FFF6E740F63F
:1013D000C41387A284A18FA0FFF771FFEEE700205E
:1013E000ECE730B59FB004460D462B4622468CA153
:1013F00001A801F00BF841F2883300227AA101A87C
:10140000FFF75DFF1FB030BD70B5A0B004460D46BC
:1014100016462B46224687A102A8009600F0F6FF4A
:101420004FF47A73002270A102A8FFF748FF20B0A2
:1014300070BD10B586B004460CB1012000E000205C
:10144000024682A101A800F0E1FF4FF4FA730022E6
:1014500065A101A8FFF733FF06B010BDF0B5B9B024
:1014600006460F4614461D46642120A800F041FFA1
:1014700016B1012E10D107E03B4678A278A120A832
:10148000009400F0C3FF08E03B4679A274A120A8B5
:10149000009400F0BBFF00E000BF00BF052D06DA9E
:1014A00020AB2A4673A102A800F0B0FF04E020AAF6
:1014B00075A102A800F0AAFF4FF47A6376A24AA1B0
:1014C00002A8FFF7FCFE39B0F0BD70B5BCB0044611
:1014D0000D461646FCB12B46012273A11EA800F052
:1014E00095FF324675A1684600F090FF4FF4FA73FD
:1014F00000223DA11EA8FFF7E2FE50B14FF4FA739F
:10150000002239A16846FFF7DAFE10B101203CB095
:1015100070BD0020FBE72B46002263A11EA800F04F
:1015200075FF4FF4FA7300222FA11EA8FFF7C7FE24
:10153000EDE710B54FF4FA7300222BA163A0FFF77B
:10154000BEFEA0B165A1234800F0DEFE08B1022076
:1015500010BD65A11F4800F0D7FE08B10320F7E7D2
:1015600064A11C4800F0D0FE08B10420F0E7002080
:10157000EEE710B500244FF4FA7300221AA153A02D
:10158000FFF79DFE00281CD05DA1124800F0BCFEB4
:1015900010B144F0010401E024F001045CA10D4805
:1015A00000F0B2FE10B144F0020401E024F00204A5
:1015B0005BA1084800F0A8FE10B144F00404B9E0B3
:1015C000B6E0CBE0000C01400048004000200140A4
:1015D00020A107006800002025730D0A000000000C
:1015E0002573000040420F004F4B000041540000A3
:1015F0006E6F206368616E676500000041542B4385
:10160000574D4F44453D310041542B43574D4F44B6
:10161000453D320041542B43574D4F44453D330027
:1016200041542B43574A41503D222573222C2225F9
:101630007322000041542B43575341503D222573E0
:10164000222C222573222C312C25640041542B435B
:1016500049504D55583D256400000000544350004A
:10166000222573222C222573222C257300000000D2
:101670005544500041542B43495053544152543D1A
:1016800025642C257300000041542B4349505354CA
:101690004152543D25730000414C5245415920436D
:1016A0004F4E4E454354000041542B43495053453F
:1016B000525645523D25642C2573000041542B435E
:1016C000495053544F3D25730000000041542B43B3
:1016D0004950535441545553000000005354415451
:1016E00055533A320D0A00005354415455533A337E
:1016F0000D0A00005354415455533A340D0A00006A
:101700002B4349505354415455533A302C00000058
:101710002B4349505354415455533A312C00000047
:101720002B4349505354415455533A322C00000036
:1017300024F004045FA1634800F0E6FD10B144F01A
:10174000080401E024F008045FA15E4800F0DCFD1D
:1017500010B144F0100401E024F01004204610BD44
:101760002DE9F04105460F464FF4FA730022AFF21F
:10177000881159A0FFF7A3FD5AA1524800F0C4FDFB
:1017800006460EB1B61D02E00020BDE8F08100243F
:1017900009E0305D2855285D222802D10020285517
:1017A00003E0601CC4B2BC42F3DB00BF0120ECE7E5
:1017B00010B54FF4FA730022AFF2D4114BA0FFF72B
:1017C0007EFD08B9002010BD4FF4FA734BA2AFF2B2
:1017D000E8114BA0FFF773FDF5E710B54B48FFF795
:1017E000B0FC4BA14B4800F0E6F84B48FFF7A9FCD2
:1017F00010BD2DE9F04186B007460C4615461E4641
:101800004FF0000847B12246AFF22C21414800F0CA
:10181000D2F84FF001081CE0052E06DAAB1C324668
:101820003EA101A800F0F2FD04E0AA1C40A101A81D
:1018300000F0ECFD4FF47A73002241A101A8FFF7FC
:101840003EFD4FF47A7300223EA12046FFF737FD9C
:101850008046404606B0BDE8F08170B504460025DC
:101860001848B0F8B80B6FF30E001649A1F8B80B82
:101870000846B0F8B80B20F40040A1F8B80B00BF40
:101880001048B0F8B80BC00B0028F9D000200D4963
:10189000B1F8B81BC1F30E010A4A50540CB11546F9
:1018A00005E02AA1074800F02FFD00B1054D2846AC
:1018B00070BD00002B4349505354415455533A33A3
:1018C0002C000000680000202B4349505354415421
:1018D00055533A342C00000041542B43494653528F
:1018E00000000000415049502C22000041542B437D
:1018F00049504D4F44453D31000000003E0000007E
:1019000041542B43495053454E44000040420F0080
:101910002B2B2B000048004020A1070041542B43F3
:10192000495053454E443D25642C25640000000079
:1019300041542B43495053454E443D25640000001B
:101940003E20000053454E44204F4B002B4950444D
:1019500000000000F0B503460D4616460027294654
:101960000A2E03D0002008702846F0BD33B930207D
:1019700001F8010B002008702846F6E7002B03DA77
:101980002D2001F8010B5B4242F210720DE093FB37
:10199000F2F404B937B104F1300001F8010B04FB93
:1019A000123301270A2092FBF0F2002AEFDC00201C
:1019B00008702846D9E70FB470B586B006460CA863
:1019C000019073E00B9800785C281CD10B98401CA8
:1019D0000B9000786E2809D072280FD10D21304667
:1019E000FFF7DCF90B98401C0B900BE00A21304606
:1019F000FFF7D4F90B98401C0B9003E00B98401CA8
:101A00000B9000BF4BE00B980078252840D10B9835
:101A1000401C0B900078642818D0732833D10198AB
:101A200010C801900BE021783046FFF7B7F900BFEE
:101A300080213046FFF720FA0028F9D0641C207876
:101A40000028F0D10B98401C0B9020E0019820C892
:101A500001900A2202A92846FFF77CFF02AC0BE0A6
:101A600021783046FFF79AF900BF80213046FFF712
:101A700003FA0028F9D0641C20780028F0D10B98D4
:101A8000401C0B9003E00B98401C0B9000BF06E03D
:101A90000B9810F8011B0B903046FFF77FF900BF41
:101AA00080213046FFF7E8F90028F9D00B9800783C
:101AB000002887D106B070BC5DF814FB10B5044651
:101AC000F8A1204600F039FC20B1F8A1204600F032
:101AD00034FC38B9F7A1F8A000F088FC0020F749E1
:101AE000086014E1F6A1204600F027FC38B9F6A101
:101AF000F1A000F07BFC0120F049086007E1F4A1AF
:101B0000204600F01AFC20B9F5A1EBA000F06EFC15
:101B1000FDE0F6A1204600F010FC20B9F7A1E6A0F8
:101B200000F064FCF3E0F8A1204600F006FC20B9C8
:101B3000F8A1E1A000F05AFCE9E0F7A1204600F08E
:101B4000FCFB20B9F6A1DCA000F050FCDFE0F6A120
:101B5000204600F0F2FB20B9F7A1D7A000F046FC28
:101B6000D5E0F7A1204600F0E8FB20B9FAA1D2A009
:101B700000F03CFCCBE0FCA1204600F0DEFB20B1F5
:101B8000FCA1204600F0D9FB38B9FDA1CAA000F0A5
:101B90002DFC0520C9490860B9E0FBA1204600F0F2
:101BA000CCFB20B1FCA1204600F0C7FB38B9FEA158
:101BB000C1A000F01BFC0620C0490860A7E0FCA102
:101BC000204600F0BAFB20B1FCA1204600F0B5FB96
:101BD00038B9FDA1B8A000F009FC0420B74908609D
:101BE00095E0FBA1204600F0A8FB20B9FAA1B2A025
:101BF00000F0FCFB8BE0FAA1204600F09EFB20B930
:101C0000F9A1ADA000F0F2FB81E0F9A1204600F0BF
:101C100094FB20B9F8A1A8A000F0E8FB77E0F8A1B8
:101C2000204600F08AFB20B9F8A1A3A000F0DEFB5B
:101C30006DE0F8A1204600F080FB20B9F8A19EA03D
:101C400000F0D4FB63E0F9A1204600F076FB38B940
:101C5000F8A199A000F0CAFB02209849086056E05C
:101C6000F5A1204600F069FB38B9F5A192A000F07B
:101C7000BDFB03209149086049E0F2A1204600F035
:101C80005CFB20B9F1A18CA000F0B0FB3FE0F0A11B
:101C9000204600F052FB20B9F0A187A000F0A6FB7F
:101CA00035E0F0A1204600F048FB20B9F0A182A069
:101CB00000F09CFB2BE0F0A1204600F03EFB20B999
:101CC000F1A17DA000F092FB21E0F2A1204600F0FE
:101CD00034FB20B9F1A178A000F088FB17E0F1A156
:101CE000204600F02AFB20B9F0A173A000F07EFB93
:101CF0000DE0EFA1204600F020FB20B9EDA16EA081
:101D000000F074FB03E021466BA000F06FFB10BDF8
:101D10002DE9F04706460C4617460025A846A94679
:101D20003946E5A000F062FB68E028466D1C205CA7
:101D3000222801D108F10108B0455FD107E028460B
:101D40006D1C225C484609F10109DE490A54605DB8
:101D50002228F4D10020DB4901F809000846FFF7EA
:101D6000ADFED7A000F042FBD7A000F03FFB5348E8
:101D7000006807283CD2DFE800F004050E17202990
:101D8000320035E0D1480168D1A000F02FFBCEA091
:101D900000F02CFB2CE0CD480168D0A000F026FB21
:101DA000C9A000F023FB23E0C8480168CEA000F0E2
:101DB0001DFBC5A000F01AFB1AE0C4480168CDA0C5
:101DC00000F014FBC0A000F011FB11E0BF48016857
:101DD000CBA000F00BFBBCA000F008FB08E0BB4868
:101DE0000168CAA000F002FBB7A000F0FFFA00BF34
:101DF00000BF002031490860BDE8F087605D002821
:101E000093D100BFF8E710B5FFF74CFA4FF400513B
:101E1000C148FEF714FCFFF7A7FA0020FFF7BFFA4E
:101E200000BFBEA1C0A0FFF7DCFA0028F9D0002057
:101E3000FFF7FFFA00BF0523BDA2BEA10020FFF7F8
:101E40000DFB0028F7D010BD2DE9F047ADF5CA6DA8
:101E500004460D469046994640F2DC511DA800F01C
:101E600048FA4FF0000A642104A800F042FA002664
:101E70000027002003904B464246B2A104A800F080
:101E8000C5FA04A800F052FA1FFA80FA04A82B46FB
:101E90002246AF49CDE900A01DA800F0B7FAFFF730
:101EA00048FB57E153756E6E79000000436C656125
:101EB00072000000C7E7000025730000400000200A
:101EC000436C6F7564790000B6E0D4C60000000072
:101ED000506172746C7920436C6F756479000000F6
:101EE000C7E7BCE4B6E0D4C6000000004D6F7374D1
:101EF0006C7920436C6F756479000000B4F3B2BF55
:101F0000B6E0D4C6000000004F766572636173745A
:101F100000000000D2F5000053686F776572200062
:101F2000D5F3D3EA000000005468756E64657273DF
:101F3000686F776572000000C0D7D5F3D3EA000060
:101F40005468756E64657273686F7765722077691F
:101F50007468204861696C00C0D7D5F3D3EAB0E952
:101F6000D3D0B1F9B1A200004C6967687420526106
:101F7000696E00004C69676874207261696E0000C8
:101F8000D0A1D3EA000000004D6F646572617465F2
:101F9000205261696E0000004D6F64657261746566
:101FA000207261696E000000D6D0D3EA0000000004
:101FB0004865617679205261696E000048656176F6
:101FC00079207261696E0000B4F3D3EA000000006A
:101FD00053746F726D000000B1A9D3EA00000000D5
:101FE0004475737400000000B8A1B3BE0000000087
:101FF00053616E6400000000D1EFC9B3000000001F
:102000004475737473746F726D000000C9B3B3BE0E
:10201000B1A9000053616E6473746F726D000000AB
:10202000C7BFC9B3B3BEB1A900000000466F676760
:1020300079000000CEED000048617A6500000000E4
:10204000F6B2000057696E6479000000B7E700003F
:10205000426C75737465727900000000B4F3B7E7E1
:1020600000000000487572726963616E65000000CF
:10207000ECABB7E70000000054726F706963616CED
:102080002053746F726D0000C8C8B4F8B7E7B1A9E7
:1020900000000000546F726E61646F00C1FABEED03
:1020A000B7E70000436F6C6400000000C0E400006C
:1020B000486F7400C8C800007425642E7478743D9D
:1020C00022000000220C0020FFFFFF00440000203F
:1020D0007025642E7069633D310000007025642E08
:1020E0007069633D360000007025642E7069633DA1
:1020F000330000007025642E7069633D34000000D9
:102100007025642E7069633D370000007025642ED1
:102110007069633D350000000020014031323334E6
:102120003536373839000000313433363333000068
:10213000383000003138332E3233302E34302E33E5
:10214000330000007B222573223A25737D000000B6
:102150005C260008032844D1FFF72AFB0523002250
:102160001DA90120FFF745FB3B48FEF7EAFF3BA115
:102170003C4800F0C9F806460EB1012000E00020FE
:10218000002825D0AFF23C01304600F0BDF80746EC
:102190000FB1012000E00020D0B133A1304600F0A3
:1021A000DBF8074631A1002000F0D6F807463A4692
:1021B000AFF2FC2103A800F029F99DF80C003028AB
:1021C00003D12BA000F012F902E02FA000F00EF9CD
:1021D000FFF703FBC823002232A133A0FFF76FF8FB
:1021E0001EE0FFF7FAFAC82300222EA12EA0FFF767
:1021F00066F831A000F0FAF800BFAFF2E001AFF2EC
:10220000D800FFF7EEF80028F7D000BF0523AFF2A3
:10221000E002AFF2E0010020FFF720F90028F5D03E
:102220000DF5CA6DBDE8F08710B5FFF7ECFD274846
:102230000368274802682748016827480068FFF7B5
:1022400003FE26480368264802682248016822489F
:102250000068FFF7F9FD10BD20A107006572726EDE
:102260006F000000680000203A0000002C00000011
:102270000D0A4F6E654E4554BDD3CAD5B5BDCAFDD6
:10228000BEDD210D0A0000000D0A4F6E654E45545B
:10229000C3BBD3D0BDD3CAD5B5BDCAFDBEDD210DEC
:1022A0000A0000004F4B000041542B4349504D4F52
:1022B00044453D3000000000D6D8D0C2C1ACBDD3EB
:1022C000A1A3A1A3A1A3A1A3000000005C00002082
:1022D0005800002054000020500000202C00002056
:1022E00028000020D2B201E000F8012B491EFBD2E9
:1022F00070470022F6E710B513460A460446194611
:10230000FFF7F0FF204610BD30B505462A460B46C4
:1023100012F8010B13F8014B08B1A042F8D01CB120
:10232000002802D06D1CF1E7284630BD421C10F891
:10233000011B0029FBD1801A704710B5002200E074
:10234000521C835C8C5CA34201D1002BF8D1D8B223
:10235000E1B2401A10BD000070B50F4D00B92868F9
:10236000002412E00A4602E09E4203D0521C137879
:10237000002BF9D1DAB2224305D02BB124B10021D0
:1023800000F8011B04E00446401C0678002EE9D149
:102390002860204670BD00006000002030B50B466C
:1023A000014600202022012409E021FA02F59D4285
:1023B00005D303FA02F5491B04FA02F52844151E59
:1023C000A2F10102F1DC30BD064C074D06E0E068E9
:1023D00040F0010394E8070098471034AC42F6D36C
:1023E000FDF7AAFEC8260008E82600080FB4054B32
:1023F00010B503A9044A029800F02CF810BC5DF84F
:1024000014FB000097100008640000200FB4084B74
:1024100010B504A902AA039800F01CF8044602A90A
:10242000002000F0F3F8204610BC5DF814FB00001B
:102430000D26000802E008C8121F08C1002AFAD1C0
:1024400070477047002001E001C1121F002AFBD134
:10245000704700002DE9FF4F8BB09A460F460546A6
:10246000002606E025280BD052460D9990476D1C9A
:10247000761C28780028F5D10FB03046BDE8F08FE3
:102480000024A0460122604900E0044315F8013F02
:10249000203B02FA03F00842F7D128782E2817D102
:1024A00015F8010F44F004042A280ED06FF02F0213
:1024B0002878A0F1300109290AD808EB880102EB3D
:1024C000410100EB01086D1CF2E757F8048B6D1C0D
:1024D000287869283ED006DC0028CDD063280BD0B0
:1024E000642804D136E0732810D075284BD05246AA
:1024F0000D999047761C85E017F8040B8DF80000C5
:1025000000208DF80100E946012003E057F8049B04
:102510004FF0FF3061074FF0000401D40AE0641C63
:1025200044450DDA8442FADB19F804100029F6D18B
:1025300006E0641C8442FCDB19F804100029F8D181
:10254000264404E019F8010B52460D999047641E89
:10255000F8D257E001CF4FF00A0B002802DA4042D0
:102560002D2102E0210504D52B218DF82410012115
:1025700003E0E10705D02021F7E70DF120090891DC
:102580000CE00021F9E701CF4FF00A0BF9E75946BB
:10259000FFF704FF01F1300209F8012D0028F6D100
:1025A000ADEB090000F1200B600701D44FF00108EA
:1025B000D84502DDA8EB0B0000E000208046002497
:1025C00006E009A85246005D0D999047641C761CF0
:1025D00008988442F5DB04E0302052460D9990477C
:1025E000761CB8F10001A8F10108F5DC05E019F846
:1025F000010B52460D999047761CBBF10001ABF1DF
:10260000010BF4DC6D1C34E7092801000A68531C37
:102610000B60107070470000393939007975616EB0
:1026200000000000706D313000000000353731329D
:102630003236363932000000383838003134304C08
:10264000624F37743D55333568484431566B784F87
:10265000464E55306137673D00000000504F5354DF
:10266000202F646576696365732F25732F64617409
:1026700061706F696E74733F747970653D33204883
:102680005454502F312E310D0A6170692D6B6579CC
:102690003A2025730D0A486F73743A206170692ED1
:1026A0006865636C6F7564732E636F6D0D0A436F9D
:1026B0006E74656E742D4C656E6774683A2025647F
:1026C0000D0A0D0A25730000E8260008000000200E
:1026D000680000003424000850270008680000202B
:1026E000A01500004424000800A24A0400000000D5
:1026F00000000000010203040607080900000000B2
:102700000102030401020304060708090204060883
:102710001C26000818260008000000000000000029
:1027200000000000000000000000000000000000A9
:1027300000000000000000002C2600083C260008D5
:1027400024260008382600080000000000000000D1
:0400000508000131BD
:00000001FF
