:020000040800F2
:100000008829002045010008F5130008F7130008AF
:10001000FB130008FF130008031400080000000091
:1000200000000000000000000000000007140008AD
:1000300009140008000000000B1400080D1400084B
:100040005F0100085F0100085F0100085F01000810
:100050005F0100085F0100085F0100085F01000800
:100060005F0100085F0100085F0100085F010008F0
:100070005F0100085F0100085F0100085F010008E0
:100080005F0100085F0100085F0100085F010008D0
:100090005F0100085F0100085F0100085F010008C0
:1000A0005F0100085F0100085F0100085F010008B0
:1000B0005F0100085F0100085F0100085F010008A0
:1000C0005F0100085F0100085F0100085F01000890
:1000D0005F0100085F0100085F0100085F01000880
:1000E0005F0100085F0100085F0100085F01000870
:1000F0005F0100085F0100085F0100085F01000860
:100100005F0100080F1400085F0100085F0100088C
:100110005F0100085F0100085F0100085F0100083F
:100120005F0100085F0100085F0100085F0100082F
:10013000DFF80CD005F06CFF0048004755130008AD
:10014000882900200648804706480047FEE7FEE76A
:10015000FEE7FEE7FEE7FEE7FEE7FEE7FEE7FEE777
:1001600047020008310100080CB500200190009002
:100170006C48006840F480306A49086000BF6948F4
:10018000006800F4003000900198401C0190009835
:1001900018B90198B0F5A06FF1D16248006800F479
:1001A000003010B10120009001E000200090009884
:1001B000012843D15C48006840F010005A490860AB
:1001C0000846006820F0030008600846006840F018
:1001D0000200086053484068524948600846406839
:1001E00048600846406840F48060486008464068BF
:1001F00020F47C1048600846406840F4E8104860ED
:100200000846006840F08070086000BF45480068FC
:1002100000F000700028F9D04248406820F0030048
:10022000404948600846406840F00200486000BF0E
:100230003C48406800F00C000828F9D10CBD10B50E
:10024000FFF792FF10BD10B53648006840F001007E
:1002500034490860084640683449084031494860DC
:1002600008460068324908402E4908600846006880
:1002700020F4802008600846406820F4FE004860B2
:100280004FF41F008860FFF7DAFF4FF00060294944
:10029000086010BD10B5002100200022214B5B68D2
:1002A00003F00C0121B1042906D0082928D107E068
:1002B000214B224C236027E01F4B204C236023E07E
:1002C000184B5B6803F47010164B5B6803F48032C4
:1002D000022303EB904022B9194B4343174C236090
:1002E0000DE0104B5B6803F4003323B1144B434320
:1002F000124C236003E0104B4343104C236003E097
:100300000D4B0E4C236000BF00BF064B5B68C3F370
:1003100003130C4CE15C094B1B68CB40074C23607A
:1003200010BD000000100240002002400000FFF855
:10033000FFFFF6FE08ED00E000127A00000000204A
:1003400000093D000400002031490143314A116099
:10035000704770B5002100230F22C47804B32D4CE0
:10036000246804F4E064C4F5E064210AC1F10403E4
:10037000CA40447804FA03F1847814402143090107
:10038000254C0678A155047804F01F050124AC40E3
:1003900005786D11AD0005F1E025C5F8004109E0D3
:1003A000047804F01F050124AC401C4D067876113A
:1003B00045F8264070BD1A4A0A400243154B1B1FE0
:1003C0001A60704739B1134A121D12680243114B6B
:1003D0001B1D1A6006E00F4A121D126882430D4B66
:1003E0001B1D1A607047042808D14FF0E0210969ED
:1003F00041F004014FF0E022116107E04FF0E021ED
:10040000096921F004014FF0E022116170470000FA
:100410000000FA050CED00E000E400E080E100E0FF
:1004200080FFFF1F01684FF6FE721140016000213E
:10043000016041608160C1608D49884208D18C496A
:100440000839496841F00F01894A083A51608AE049
:1004500087491431884208D185490839496841F0F3
:10046000F001834A083A51607DE081492831884291
:1004700008D17F490839496841F470617C4A083ADB
:10048000516070E07A493C31884208D17849083996
:10049000496841F47041764A083A516063E0744912
:1004A0005031884208D172490839496841F47021B5
:1004B0006F4A083A516056E06D496431884208D16C
:1004C0006B490839496841F47001694A083A51603A
:1004D00049E067497831884208D165490839496857
:1004E00041F07061624A083A51603CE061498842DB
:1004F00006D1011F096841F00F01021F116032E0AF
:100500005C491431884208D15A49091F096841F0F1
:10051000F001584A121F116025E0564928318842DF
:1005200008D15449091F096841F47061514A121FEA
:10053000116018E04F493C31884208D14D49091FEC
:10054000096841F470414B4A121F11600BE04949A0
:100550005031884207D14749091F096841F4702189
:10056000444A121F1160704710B50022026847F616
:10057000F0739A430C6A8B6823430C6923434C69DC
:1005800023438C692343CC6923434C6A23438C6AFD
:1005900023431A430260CB6843600B6883604B6857
:1005A000C36010BD0021016041608160C1600161D4
:1005B00041618161C161016241628162704721B123
:1005C000026842F00102026004E002684FF6FE7326
:1005D0001A40026070471AB103680B43036002E0DF
:1005E00003688B4303607047416070470146486869
:1005F00080B2704701460020002201F080531BB1F9
:100600001C4B083B1A6802E0194B083B1A6802EAC7
:1006100001030BB1012000E00020704700F0805181
:1006200019B11449091F086002E0114908394860EE
:10063000704701460020002201F080531BB10D4B92
:10064000083B1A6802E00A4B083B1A6802EA0103F9
:100650000BB1012000E00020704700F0805119B17B
:100660000449091F086002E00149083948607047E1
:10067000080002400804024010B50446CC488442F9
:1006800008D10121042000F02DFB0021042000F0FE
:1006900029FB46E0C748844208D10121082000F028
:1006A00021FB0021082000F01DFB3AE0C2488442F3
:1006B00008D10121102000F015FB0021102000F0CE
:1006C00011FB2EE0BD48844208D10121202000F01A
:1006D00009FB0021202000F005FB22E0B8488442FD
:1006E00008D10121402000F0FDFA0021402000F057
:1006F000F9FA16E0B348844208D10121802000F0C5
:10070000F1FA0021802000F0EDFA0AE0AE488442C0
:1007100007D10121801500F0E5FA0021A01500F0B5
:10072000E1FA10BD10B50121084600F0DBFA002106
:10073000012000F0D7FA10BD2DE9F0410246002556
:100740000026002000230024002791F803C00CF0AD
:100750000F0591F803C00CF0100CBCF1000F03D092
:1007600091F802C04CEA050591F800C0BCF1000FF9
:1007700031D0146800202BE04FF0010C0CFA00F38C
:10078000B1F800C00CEA03069E4220D183004FF06E
:100790000F0C0CFA03F7BC4305FA03FC4CEA040403
:1007A00091F803C0BCF1280F06D14FF0010C0CFAF0
:1007B00000FCC2F814C00AE091F803C0BCF1480F75
:1007C00005D14FF0010C0CFA00FCC2F810C0401C1F
:1007D0000828D1D31460B1F800C0BCF1FF0F34DD9C
:1007E000546800202EE000F1080C4FF0010808FAD0
:1007F0000CF3B1F800C00CEA03069E4221D183003D
:100800004FF00F0C0CFA03F7BC4305FA03FC4CEA5B
:10081000040491F803C0BCF1280F05D100F1080CC5
:1008200008FA0CF8C2F8148091F803C0BCF1480F24
:1008300007D100F1080C4FF0010808FA0CF8C2F8D3
:100840001080401C0828CED35460BDE8F0814FF6DC
:10085000FF710180022181700421C170704702463E
:10086000002093680B400BB1012000E0002070478E
:100870000146886880B2704702460020D3680B406A
:100880000BB1012000E0002070470146C86880B22B
:10089000704701617047416170470AB1016100E032
:1008A00041617047C16070474FF480320A438261F2
:1008B0008161826182698269704702460020434BF0
:1008C00018684FF68073184040EA021008433F4B07
:1008D000186070473E49C8617047F0B50A4600236A
:1008E00000240021002500F00046B6F1004F02D19F
:1008F000364EF16901E0354E7168C0F3034583B2AD
:1009000000F44016B6F5401F08D121F070612F4E5B
:10091000766826F070662D4F7E6012E000F4801637
:10092000B6F5801F06D1032606FA05F4A14341F06F
:10093000706106E0460D360103FA06F6B14341F058
:10094000706122B1460D360103FA06F6314300F01C
:100950000046B6F1004F02D11C4EF16101E01B4E82
:100960007160F0BD30B500228B071C0F0F2303FA16
:1009700004F2164B08338C1053F824309343134C75
:1009800008348D1044F8253023468C1053F8243059
:100990008C07240F00FA04F423430C4C08348D1008
:1009A00044F8253030BD0A49DC310860704700004A
:1009B00000080140000C01400010014000140140FB
:1009C00000180140001C01400020014000000140CF
:1009D00000002042DF48006840F00100DD49086067
:1009E00008464068DC490840DA4948600846006823
:1009F000DA490840D74908600846006820F480209A
:100A000008600846406820F4FE0048604FF41F006C
:100A100088607047CF49096821F48031CD4A116060
:100A20001146096821F480211160B0F5803F03D0A0
:100A3000B0F5802F0ED106E0C649096841F4803137
:100A4000C44A116007E0C349096841F4A021C14AC2
:100A5000116000E000BF00BF704710B501460022E2
:100A6000002300204A11012A02D1BA4C236806E073
:100A7000022A02D1B74C236A01E0B64C636A01F046
:100A80001F02012494401C400CB1012000E0002012
:100A900010BD38B5002000900024002500BF312093
:100AA000FFF7DBFF05460098401C00900098B0F56A
:100AB000A06F01D0002DF2D03120FFF7CEFF08B19A
:100AC000012400E00024204638BD01460020A14A50
:100AD000106820F0F80040EAC10010607047A0499B
:100AE00008607047024600209A4B586820F47C103A
:100AF00042EA01031843974B5860704798490866CB
:100B0000704701460020934A506820F003000843D4
:100B1000506070478F48406800F00C0070470146F5
:100B200000208C4A506820F0F00008435060704765
:100B300001460020874A506820F4E0600843506076
:100B4000704701460020834A506820F4605040EA14
:100B5000C1005060704729B17E4A527A02437D4BF2
:100B60005A7204E07B4A527A82437A4B5A72704737
:100B70007B49D8310860704701460020754A5068AB
:100B800020F440400843506070470021714A2032F1
:100B90001170704A82F82010012802D004280AD16E
:100BA00004E001216B4A2032117005E00521694AF9
:100BB0002032117000E000BF00BF70476949086033
:100BC00070476449096A0143624A11627047654986
:100BD00044390860704730B500210022002400230A
:100BE0005C4D6D6805F00C0121B1042905D0082980
:100BF00023D105E05C4D056022E05B4D05601FE000
:100C0000544D6D6805F47012524D6D6805F48034D2
:100C1000022505EB92421CB9544D554305600BE08B
:100C20004C4D6D6805F400351DB1504D55430560C0
:100C300002E04D4D5543056002E04B4D056000BF9D
:100C400000BF444D6D6805F0F0010909484D6B5C2B
:100C50000568DD4045603F4D6D6805F4E061090AB7
:100C6000434D6B5C4568DD4085603A4D6D6805F429
:100C70006051C90A3E4D6B5C4568DD40C560354D2D
:100C80006D6805F44041890B3A4D6B5CC568B5FB56
:100C9000F3F5056130BD29B12E4A526902432D4B4F
:100CA0005A6104E02B4A526982432A4B5A617047C9
:100CB00029B1284A92690243264B9A6104E0254AE9
:100CC00092698243234B9A61704729B1214AD269C4
:100CD0000243204BDA6104E01E4AD26982431D4B75
:100CE000DA61704729B11B4AD2680243194BDA60B6
:100CF00004E0184AD2688243164BDA60704729B183
:100D0000144A12690243134B1A6104E0114A126932
:100D10008243104B1A61704712494039086070478E
:100D20000F49C86470470B49C87170470948406A49
:100D300040F0807007494862704701460020054A2C
:100D400092680A400AB1012000E000207047014982
:100D500088727047001002400000FFF8FFFFF6FEA7
:100D6000000042428004424200127A0000093D0025
:100D7000140000202400002000206F490860486013
:100D80008860C86048628862C8626C4888630020D6
:100D9000C86370470021684A516847F6FF62914373
:100DA000027D83681A4343681A43C3681A43036881
:100DB0001A4303691A4311435F4A51607047002187
:100DC0000175016041608160C160016170475C49EB
:100DD000086070475849096821F00301564A1160BC
:100DE000114609680143116070475348006800F0DC
:100DF0000300704729B1504AD26B02434E4BDA636D
:100E000004E04D4AD26B82434B4BDA6370474D4945
:100E1000086070470021484B02689A601A46D16802
:100E20006FF30A01D0E901231A43C3681A43036927
:100E30001A431143404AD16070470021016041606C
:100E40008160C160016170473B480069C0B2704772
:100E500008B501460020009037481430084400903F
:100E60000098006808BD0021334B02685A6242684E
:100E70009A621A46D16A21F0F701D0E902231A4397
:100E800003691A4343691A4311432B4AD1627047DD
:100E90004FF0FF310160002141608160C16001615C
:100EA000416170472448006B7047234880300068D8
:100EB000704721498031086070471F48806C704737
:100EC00020491431086070471E4918310860704786
:100ED0001C491C31086070471A492031086070476E
:100EE0001949086070471849091D086070470121B9
:100EF0008143154A08321160704713490C3108606C
:100F00007047014600200C4A526B0A400AB101208A
:100F100000E00020704708498863704701460020C0
:100F2000054A526B0A400AB1012000E000207047D8
:100F3000014988637047000000800140FF07C0003E
:100F4000A00030428C053042AC01304210B504465E
:100F5000FB48844209D101218803FFF7C3FE002129
:100F60004FF48040FFF7BEFE32E0F648844209D1DC
:100F700001214804FFF7C3FE00214FF40030FFF7C2
:100F8000BEFE25E0F048844209D101218804FFF724
:100F9000B6FE00214FF48020FFF7B1FE18E0EB48C9
:100FA000844209D10121C804FFF7A9FE00214FF4B2
:100FB0000020FFF7A4FE0BE0E548844208D10121A0
:100FC0000805FFF79CFE00214FF48010FFF797FE05
:100FD00010BD2DE9F04786B005460E460024A24616
:100FE00000BFA1460027B08900B100BF2F462C8A60
:100FF0004CF6FF700440F08804432C82AC894EF616
:10100000F3100440B08831890843718908430443D0
:10101000AC81AC8A4FF6FF400440B0890443AC82F7
:1010200001A8FFF7D8FDC648874202D1DDF810A01D
:1010300001E0DDF80CA0A88900F4004040B10AEB03
:10104000CA0000EB0A1031684900B0FBF1F807E074
:101050000AEBCA0000EB0A1031688900B0FBF1F816
:101060006420B8FBF0F004012009642101FB108921
:10107000A88900F4004040B1322000EBC900B0FB69
:10108000F1F000F00700044308E0322000EB091003
:101090006421B0FBF1F000F00F0004432C8106B096
:1010A000BDE8F0874FF41651016000218180C180B6
:1010B00001810C21418100218181704710B50246D8
:1010C0000020108A4FF2FF0318400B884C882343FE
:1010D0008C882343CC8823431843108210BD002101
:1010E000018041808180C180704721B1828942F4B2
:1010F0000052828104E082894DF6FF731A4082819A
:101100007047F0B50346002400260025002040F675
:101110006A17B94200D100BF1846C1F3421401F06A
:101120001F06012707FA06F5012C01D10C3004E057
:10113000022C01D1103000E014301AB107682F439F
:10114000076002E00768AF430760F0BD1AB1838A09
:101150000B43838202E0838A8B4383827047028A37
:101160004FF6F0731A400282028A0A4302827047E5
:1011700082894FF2FF731A40828182890A438281F9
:10118000704721B1828942F00202828104E08289A3
:101190004FF6FD731A4082817047028A4FF6DF7363
:1011A0001A400282028A0A430282704721B1028AEF
:1011B00042F48042028204E0028A4BF6FF731A4036
:1011C00002827047C1F30802828070470146888816
:1011D000C0F308007047818941F0010181817047A7
:1011E000028BD2B20283028B42EA01220283704751
:1011F000028B02F47F420283028B0A430283704710
:1012000021B1828A42F02002828204E0828A4FF673
:10121000DF731A408282704721B1828A42F0100245
:10122000828204E0828A4FF6EF731A40828270470E
:1012300021B1828A42F00802828204E0828A4FF65B
:10124000F7731A408282704721B1828942F40042CA
:10125000828103E08289C2F30E028281704721B14C
:10126000828A42F40062828204E0828A4FF2FF7333
:101270001A4082827047828A4FF6FB731A4082823C
:10128000828A0A438282704721B1828A42F0020236
:10129000828204E0828A4FF6FD731A408282704790
:1012A00002460020B1F5007F00D100BF13880B403B
:1012B0000BB1012000E00020704701F40072B2F58C
:1012C000007F00D100BFCA430280704770B502465C
:1012D000002400230025002040F66A16B14200D108
:1012E00000BFC1F3421501F01F03012606FA03F304
:1012F000012D02D19689334006E0022D02D1168AD3
:10130000334001E0968A33400C12012606FA04F4B9
:101310001688344013B10CB1012000E0002070BDEC
:1013200010B50022002340F66A14A14200D100BF8C
:101330000A1201249440A3B2DC43048010BD0000D3
:10134000003801400044004000480040004C00408C
:101350000050004000F060F820201A490860012089
:1013600008600220091D086000F086F8012216A11D
:10137000164803F0FBF8122215A11B4803F021F9CF
:101380001A4B14221A49184803F0CAFA174B1422B0
:101390001749154803F0C4FA144B14221449124893
:1013A00003F0BEFA114B142211490F4803F0B8FAAA
:1013B0000D4803F013FC012203A1002003F0D6F82E
:1013C00000BFFEE7100C0140303A0000640000202E
:1013D000303A4661744673B6C1D0B4B2E2CAD4CED4
:1013E000C4BCFE2E74787400941000202C000020E1
:1013F00030000020704700BFFEE700BFFEE700BFDF
:10140000FEE700BFFEE7704770477047704710B5B2
:1014100001F0D1FB10BD000008B501210820FFF745
:1014200047FC2020ADF8000010208DF803000320B9
:101430008DF8020069460F48FFF77EF90120ADF8EC
:10144000000069460B48FFF777F90220ADF800006D
:1014500069460848FFF770F920210648FFF719FA96
:1014600001210448FFF715FA02210248FFF711FA9B
:1014700008BD0000000C014000B585B0012104202A
:10148000FFF716FC01218803FFF712FC4FF40070F0
:10149000ADF8100018208DF8130003208DF812000D
:1014A00004A92248FFF748F94FF48060ADF8100016
:1014B00004208DF8130004A91C48FFF73DF94FF4F0
:1014C000E13000900020ADF80400ADF80600ADF862
:1014D0000800ADF80C000C20ADF80A00694614486D
:1014E000FFF777FD01211248FFF7FFFD05B000BDB2
:1014F00070B504460D46E1B20D48FFF763FE00BF2C
:1015000080210B48FFF7CCFE0028F9D0204670BDA3
:1015100010B5044600BF20210548FFF7C1FE002892
:10152000F9D00348FFF752FE10BD0000000801404B
:101530000038014008B50020FFF749FC0020FFF704
:1015400049FCFFF719FC00214FF48060FFF7A3FB73
:101550004FF4F850ADF8000004208DF80300694600
:10156000FC48FFF7E9F80420ADF800006946FA48A6
:10157000FFF7E2F808BD08B54FF4C060FEF7E4FEDF
:1015800031208DF8000000208DF801008DF8020058
:1015900001208DF803006846FEF7DBFE08BD10B59C
:1015A000EE48FFF727F810BD30B58BB005460C4666
:1015B000EB48FFF733F80021EA48FFF700F8EA4864
:1015C0000090019500200290A00803900020049054
:1015D00080200590800006908000079000200890F1
:1015E0004FF40050099000200A906946DD48FEF74C
:1015F000BBFF0121DB48FEF7E2FF0BB030BD30B589
:101600008BB005460C46D648FFF708F80021D548B0
:10161000FEF7D5FFD4480090019510200290A00855
:1016200003900020049080200590800006908000A8
:101630000790002008904FF40050099000200A9075
:101640006946C848FEF790FF0121C648FEF7B7FF7C
:101650000BB030BD08B501213020FFF729FB4FF456
:10166000F850ADF8000003208DF8020018208DF826
:1016700003006946B748FFF75FF80420ADF80000A3
:101680006946B548FFF758F801218802FFF703FBC8
:1016900001210220FFF7FFFA08BD014600BFB24852
:1016A0008038406B00F045000028F8D040F2FF5031
:1016B000AD4A803A90631046406908221040C0B29B
:1016C00070472DE9FC4107460D4600260024002006
:1016D000009001900820A549086010204860402033
:1016E00088600020C8604FF4806008610846FFF7FA
:1016F00091FB1020FFF7D1FF044614B12046BDE84E
:10170000FC819B48008800049849086037204860A5
:10171000402088600020C8604FF48060086108465F
:10172000FFF778FB3720FFF7B8FF04460CB12046DF
:10173000E5E74FF0FF308F4908600820486030200F
:1017400088600220C86000200861012048610846C6
:10175000FFF789FB0020854908603320486040205E
:1017600088600020C8604FF4806008610846FFF779
:1017700051FB3320FFF791FF04460CB12046BEE732
:101780000CE04FF40010FFF7BCFB38B1FFF78DFB06
:101790004DF82600761C012E00D907E072488038EB
:1017A000406B40F22A6108400028EAD000BF0820C0
:1017B000FFF7A7FB28B10820FFF7ADFB0424204664
:1017C0009DE70220FFF79DFB28B10220FFF7A3FB56
:1017D0000224204693E72020FFF793FB28B1202026
:1017E000FFF799FB0624204689E74FF40070FFF7C6
:1017F00088FB30B14FF40070FFF78DFB07242046C3
:101800007DE740F2FF50FFF786FB00980006009945
:1018100001F47F4140EA0120009901F47F0140EA90
:101820001120009940EA1160686001980006019952
:1018300001F47F4140EA0120019901F47F0140EA6F
:101840001120019940EA11602860204657E77CB5D5
:1018500005460024002000900190FFF7F9FA00F0FF
:10186000007010B10E2420467CBD4149098888B221
:101870006946FFF726FF04460CB12046F4E7012D28
:1018800036D1019800F4802000282ED038480088F6
:1018900000043649086037204860402088600020F6
:1018A000C860A80208610846FFF7B4FA3720FFF7BE
:1018B000F4FE04460CB12046D6E702202B4908600E
:1018C00006204860402088600020C8604FF4806097
:1018D00008610846FFF79EFA0620FFF7DEFE044681
:1018E0000CB12046C0E72046BEE725242046BBE7D2
:1018F000019800F48030F8B31D48008800041B49AB
:10190000086037204860402088600020C8604FF49D
:10191000806008610846FFF77DFA3720FFF7BDFEBB
:1019200004460CB120469FE70020104908600620BD
:101930004860402088600020C8604FF480600861E3
:101940000846FFF767FA0620FFF7A7FE0446A4B192
:10195000204689E7001001400014014000200010DB
:1019600000F000104404024080800140582500200F
:10197000480000206C25002001E0204674E7252463
:10198000204671E770B504460025FA480068032830
:1019900002D12725284670BDF648006838B1F548C1
:1019A0000068012803D0F348006802282ED1B4F55E
:1019B000805F02D127252846EDE7B4F5006F14D1EA
:1019C0000120FFF744FF054605BB0120EA490875E1
:1019D00000200860486088604FF40060C860002004
:1019E00008610846FFF7D6F910E00020FFF72FFF47
:1019F00005465DB90120E04908750020086048608F
:101A00008860C86008610846FFF7C4F92846C2E745
:101A100070B504460025D94804600720D7494860BE
:101A2000402088600020C8604FF48060086108464C
:101A3000FFF7F0F90720FFF730FE0546284670BD96
:101A4000F0B5014600200022CA4B1B7881F85630C1
:101A5000CB4B1B88A1F85430CA4B1B681A0E930954
:101A60000B70C2F383034B7002F003038B70C54B02
:101A70001B68C3F30742CA70C24B1B88C3F307221B
:101A80000A71C04B1A784A715B681A0E1301CB8039
:101A9000BC4B5B68C3F30742CB8843EA1213CB808D
:101AA00002F00F030B72B74B9B88C3F30722D309D5
:101AB0004B72C2F380138B72C2F34013CB72C2F32A
:101AC00000130B7300234B73AA4B1B681BB1A94B6C
:101AD0001B68012B4FD193071B0D0B61A94B1A7982
:101AE0000B6943EA82030B61A64B9B681A0E0B69D4
:101AF00043EA92130B61C2F3C2030B7502F00703B2
:101B00004B75A04B9B68C3F3074253098B75C2F317
:101B10008203CB7593075B0F0B769A4B1B89C3F33C
:101B200007220B7E43EAD2130B760B695B1C002461
:101B3000C1E912340B7ED1E912649B1C012505FA20
:101B400003F3DF17A6FB035C04FB03C306FB0733A9
:101B5000C1E912530C7A0123A3400B650027D1E998
:101B600012560B6DA5FB034C06FB03C305FB0733A5
:101B7000C1E912432DE07F4B1B68022B29D1814B19
:101B80001A7993069B0A0B617E4B9B681A0E0B69B0
:101B900043EA02230B617B4B9B68C3F307420B694B
:101BA00013430B61774B1B89C3F307220B695B1C43
:101BB0004FF40074A3FB04344FF480660025A3FBAC
:101BC000067C04FB06C403FB0543C1E912737310D2
:101BD0000B65C2F3801301F8193F93065B0E4B703F
:101BE000684B1A7A4B7843EAD2134B7002F07F03AA
:101BF0008B70644BDB681A0ED309CB70C2F34113B0
:101C00000B71C2F382034B7193071B0F8B715D4BFA
:101C1000DB68C3F307428B7943EA92138B71C2F3FB
:101C20004013CB7100230B7202F001034B72554B32
:101C30009B89C3F30722D3098B72C2F38013CB7243
:101C4000C2F340130B73C2F300134B73C2F381034F
:101C50008B7302F00303CB734A4B1A7B53080B744C
:101C600001234B74484B1B681A0ECA741939464B32
:101C70001B68C3F307421402CC85434B1B88C3F394
:101C80000722CB8D1343CB853F4B1A7814060C6388
:101C90005B681A0E0B6B43EA02440C633A4B5B68B9
:101CA000C3F307420B6B43EA02240C63364B9B8859
:101CB000C3F307220B6B13430B63334B1A793423A3
:101CC0005A54314B9B681A0E35235A542E4B9B683D
:101CD000C3F3074214068C632B4B1B89C3F3072203
:101CE0008B6B43EA02448C63274B1A7A8B6B43EA73
:101CF00002248C63244BDB681A0E8B6B13438B63BB
:101D0000214BDB68C3F307423C235B5C43EA1214BC
:101D10003C235C5413071C0DCC871B4B9B89C3F3DE
:101D20000722CB8F1343CB87174B1A7B54084023D2
:101D30005C54012441235C54F0BD70B50025134868
:101D4000446B01E01148446B04F045000028F9D0D1
:101D500004F0040028B103250420FFF7DCF828462E
:101D600070BD04F0010098B101250120FFF7D3F800
:101D70002846F5E744000020402500205825002093
:101D800048000020B8240020C82400200080014022
:101D900040F2FF50FFF7BFF82846E1E72DE9F04198
:101DA00006460F464FF00008FA48456B01E0F94837
:101DB000456B05F045000028F9D005F0040038B166
:101DC0004FF003080420FFF7A6F84046BDE8F08175
:101DD00005F0010030B14FF001080120FFF79BF83A
:101DE0004046F3E7FFF730F8B04203D04FF0100859
:101DF0004046EBE740F2FF50FFF78DF80020FFF779
:101E000027F8044604F4604018B9200C3880404696
:101E1000DCE704F4005008B11320D7E704F4804055
:101E200008B11020D2E704F4004008B10F20CDE73C
:101E30004046CBE738B5002401200090FEF7D5FFDF
:101E400010B92524204638BDD3480068042828D07E
:101E50000020D249086002204860C020886000202D
:101E6000C8604FF4806008610846FEF7D3FFFFF7B3
:101E700064FF04460CB12046E5E70020FEF7E8FFCA
:101E8000C74908600420FEF7E3FFC5494860082001
:101E9000FEF7DEFFC24988600C20FEF7D9FFC0497B
:101EA000C860BD48006858B1BB480068012807D029
:101EB000B9480068062803D0B7480068022816D140
:101EC0000020B64908600320486040208860002058
:101ED000C8604FF4806008610846FEF79BFF6946C2
:101EE0000320FFF75BFF04460CB12046ABE7AA488E
:101EF000006804282ED0BDF80000AA490860BDF88B
:101F000000000004A549086009204860C0208860DE
:101F10000020C8604FF4806008610846FEF77AFF31
:101F2000FFF70BFF04460CB120468CE70020FEF7BC
:101F30008FFF9D4908600420FEF78AFF9A49486098
:101F40000820FEF785FF984988600C20FEF780FF87
:101F50009549C8600024204675E770B500258D4876
:101F6000446B01E08B48446B04F045000028F9D035
:101F700004F0040028B103250420FEF7CCFF284616
:101F800070BD40F2FF50FEF7C6FF2846F8E770B577
:101F900000264FF480357F48446B02E06D1E7D487B
:101FA000446B04F0450008B9002DF7D115B104F0D9
:101FB000040028B103260420FEF7ADFF304670BDB3
:101FC00004F0400028B100264020FEF7A4FF304670
:101FD000F5E73046F3E770B500254FF4803400E0B4
:101FE000641E24B18020FEF78CFF0028F8D014B9BD
:101FF0000325284670BD40F2FF50FEF78CFF2846AF
:10200000F8E72DE9F0410024002600250027A0462E
:10201000B220664908750020086048608860C86082
:1020200008610846FEF7B6FE0320FEF7D3FE012046
:10203000FEF7CDFE00205949086048608860C860FE
:102040004FF4806008610846FEF7E4FEFFF7C3FF27
:10205000044614B12046BDE8F0814FF4D5704F49D5
:10206000086008204860402088600020C8604FF465
:10207000806008610846FEF7CDFEFFF788FF044642
:102080002CB90120444908604FF0804812E000203C
:102090004249086037204860402088600020C860BE
:1020A0004FF4806008610846FEF7B4FE3720FFF762
:1020B000F4FA04460020394908603720486040207F
:1020C00088600020C8604FF4806008610846FEF711
:1020D000A1FE3720FFF7E1FA0446002C4AD136E092
:1020E00000202E490860372048604020886000208A
:1020F000C8604FF4806008610846FEF78BFE372009
:10210000FFF7CBFA04460CB12046A4E7284848EA7A
:102110000000224908602920486040208860002093
:10212000C8604FF4806008610846FEF773FEFFF751
:1021300014FF04460CB120468DE70020FEF788FE10
:102140000646012080EAD67080F001076D1C1FB999
:102150004FF6FF708542C3D34FF6FF70854202D31E
:102160001B24204677E706F08040061E02D002209E
:102170000949086020466EE710B50024FFF7FBF917
:10218000FFF768FAFEF7F8FDFFF73BFF04468CB156
:10219000204610BD0080014044000020582500204A
:1021A000C824002048000020B8240020402500203A
:1021B00000001080FFF73EFE04460CB12046E8E721
:1021C0000120FD4908750020086048608860C860EB
:1021D00008610846FEF7DEFD1CB9F848FFF730FC41
:1021E000044634B9F549B1F854100804FFF710FC5F
:1021F000044624B94FF40060FFF7C4FB04462046B0
:10220000C7E770B504460025ED4800880004ED4995
:10221000886040F24D40C8600D20FFF73EFA054649
:102220000DB1284670BDE748406920602846F9E7AF
:1022300008B5002000906846FFF7E3FF08B1FF20D3
:1022400008BD0098C0F34320FAE710B50424FFF757
:10225000EFFF0446042C01D1002010BDFF2C01D15A
:102260000220FAE70120F8E710B500240020FEF76D
:10227000B1FD204610BD70B50446002500260020A3
:10228000FEF7E6FD00F0007010B10E25284670BD87
:102290004020CD4908601020486040208860002020
:1022A000C8604FF4806008610846FEF7B3FD102057
:1022B000FFF7F3F905460DB12846E8E7C048008866
:1022C0000004C14908603720486040208860002031
:1022D000C8604FF4806008610846FEF79BFD372018
:1022E000FFF7DBF905460DB12846D0E74FF0FF3088
:1022F000B649086040204860602088600220C860BD
:1023000000200861012048610846FEF7ACFD00206E
:10231000AD4908600D204860402088600020C860FA
:102320004FF4806008610846FEF774FD0D20FFF74A
:10233000B4F905460DB12846A9E70EE04FF4004078
:10234000FEF7DFFD48B1002604E0FEF7AEFD44F8DD
:102350002600761C082EF8D320349A48406B40F2B1
:102360002A6108400028E9D00820FEF7CAFD28B1FC
:102370000820FEF7D0FD0425284688E70220FEF756
:10238000C0FD28B10220FEF7C6FD022528467EE7E3
:102390002020FEF7B6FD28B12020FEF7BCFD062563
:1023A000284674E74FF40070FEF7ABFD30B14FF4F0
:1023B0000070FEF7B0FD0725284668E703E0FEF74A
:1023C00074FD2060241D4FF40010FEF79AFD0028D4
:1023D000F5D140F2FF50FEF79EFD284657E770B555
:1023E0000446002600257A48FFF745FF06460EB151
:1023F000304670BD764800788509257074480078AD
:10240000C0F3401565707248857828026080704876
:10241000C5786088284360806D480579280660602B
:102420006B484579606840EA054060606848857996
:10243000606840EA052060606548C57960682843A7
:1024400060606348057A2572457A6572807A05096D
:10245000A5725F48C57A2802A0815D48057BA089E6
:102460002843A0815A48407B8508A5735848407B83
:1024700000F00305E5733046BBE72DE9F0418046E7
:1024800014461D46069E00270020524908705249F6
:102490000860524908604B49C862514800680228E8
:1024A00008D10602020200232046294603F04EFD11
:1024B00004460D46444806601020434948604020C9
:1024C00088600020C8604FF4806008610846FEF70D
:1024D000A1FC1020FFF7E1F8074617B13846BDE828
:1024E000F0814FF0FF30394908600846466090207F
:1024F00088600220C8600020086101204861084609
:10250000FEF7B1FC3048046011202F49486040209C
:1025100088600020C8604FF4806008610846FEF7BC
:1025200079FC1120FFF7B9F807460FB13846D6E716
:1025300001210802FEF75EFC0120FEF768FC31462F
:102540004046FFF731F83846C9E72DE9F0478146A4
:1025500014461D46DDE90868002700201D49087063
:102560001D49086001201D49086000201549C86206
:102570001B480068022808D10602020200232046F8
:10258000294603F0E3FC04460D460F480660102080
:102590000D494860402088600020C8604FF480608A
:1025A00008610846FEF736FC1020FFF776F807466C
:1025B000C7B13846BDE8F08740250020E824002058
:1025C0004800002000800140582500206C25002094
:1025D000D824002050000020540000204C0000208F
:1025E000440000204FF0FF30F949086008FB06F076
:1025F0004860902088600220C860002008610120A7
:1026000048610846FEF72FFCF24804601220F149A9
:102610004860402088600020C8604FF480600861F6
:102620000846FEF7F7FB1220FFF737F8074617B109
:102630003846BDE8F08701210802FEF7DBFB0120E8
:10264000FEF7E5FB08FB06F14846FEF7ADFF38460E
:10265000EFE710B5002400BFFEF7A1FF30B9DE4858
:10266000006818B9DD4800780028F5D0DB4800780C
:1026700010B1DA48007810BD2046FCE72DE9F041A2
:10268000804614461D46069E00270020D349087048
:10269000D1490860D2490860D249C862D24800686E
:1026A000022808D10602020200232046294603F030
:1026B0004DFC04460D46C74806601020C5494860D9
:1026C000402088600020C8604FF4806008610846A0
:1026D000FEF7A0FB1020FEF7E0FF074617B13846D3
:1026E000BDE8F081BB4804601820BA49486040202A
:1026F00088600020C8604FF4806008610846FEF7DB
:1027000089FB1820FEF7C9FF07460FB13846E7E7F7
:102710004FF0FF30AE490860084646609020886060
:102720000020C8600861012048610846FEF79BFB55
:1027300001210802FEF75EFB31464046FEF75FFFCF
:102740000120FEF764FB3846CAE72DE9F8438146CD
:1027500015461E46DDE908780024002000909F49B8
:1027600008709D49086001209D49086000209D492E
:10277000C8629D480068022808D1070202020023AF
:102780002846314603F0E2FB05460E4691480760B5
:10279000102090494860402088600020C8604FF4B5
:1027A000806008610846FEF735FB1020FEF775FFD4
:1027B000044614B12046BDE8F8838C480088000424
:1027C0008449086037204860402088600020C86045
:1027D0004FF4806008610846FEF71CFB3720FEF7C7
:1027E0005CFF04460CB12046E5E77A48C0F800805B
:1027F000172078494860402088600020C8604FF466
:10280000806008610846FEF705FB1720FEF745FFCC
:1028100004460CB12046CEE76E48056019206D498C
:102820004860402088600020C8604FF480600861E4
:102830000846FEF7EFFA1920FEF72FFF04460CB109
:102840002046B8E74FF0FF306149086008FB07F009
:102850004860902088600020C860086101204861BD
:102860000846FEF700FB01210802FEF7C3FA01202B
:10287000FEF7CDFA08FB07F14846FEF7C0FE2046FA
:1028800099E710B5002400BFFEF789FE30B9524821
:10289000006818B9514800780028F5D04F480078F2
:1028A00010B14E48007810BD40F2FF50FEF733FBE8
:1028B0002046F8E74B48406B00F4405008B1012037
:1028C00070470020FCE710B50024002045498860CF
:1028D00040F24C40C8600C20FEF7DFFE0446204664
:1028E00010BD7CB5044600250020019000903F48B3
:1028F00000880004374908600D2048604020886047
:102900000020C8604FF4806008610846FEF782FA34
:102910003448406B009002E03248406B00900098D1
:1029200000F045000028F7D0009800F0040028B11E
:1029300003250420FEF7EFFA28467CBD009800F03E
:10294000010028B101250120FEF7E5FA2846F4E749
:10295000FEF77AFA009000980D2802D0102528463C
:10296000EBE740F2FF50FEF7D6FA0020FEF770FAD0
:1029700001900198C0F3432020701D490198084040
:1029800008B92846D9E7019800F0004008B11C209A
:10299000D3E7019800F0804008B10920CDE7019805
:1029A00000F0005008B10A20C7E7019800F08050FD
:1029B00008B10B20C1E7019800F0006008B10C20BD
:1029C000BBE7019800F08060A0B10D20B5E70000E2
:1029D0006C250020582500205400002050000020C5
:1029E0004C000020008001404400002048000020EE
:1029F00008E0FFFD019800F0807008B10E209CE710
:102A0000019800F4000008B10F2096E7019800F447
:102A1000800008B1102090E7019800F4001008B180
:102A200011208AE7019800F4801008B1122084E791
:102A3000019800F4002008B113207EE7019800F40B
:102A4000802008B1142078E7019800F4003008B124
:102A5000152072E7019800F4803008B116206CE769
:102A6000019800F4004008B1172066E7019800F4CF
:102A7000804008B1182060E7019800F4005008B1C8
:102A800019205AE7019800F0080008B11A2054E70D
:102A9000284652E72DE9FC4105460E460024002752
:102AA0000020019000905A484068202101EA10500F
:102AB00018B925242046BDE8FC8156484068C0B2BC
:102AC000801C5549B1FBF0F001900020FEF7C0F9E1
:102AD00000F0007010B10E242046ECE74F4800686B
:102AE000022801D16D0A760A4C48006838B14B487B
:102AF0000068012803D04948006802282BD14848C3
:102B00000560202046494860402088600020C86059
:102B10004FF4806008610846FEF77CF92020FEF73C
:102B2000BCFD04460CB12046C5E73D4806602120A7
:102B30003B494860402088600020C8604FF48060B6
:102B400008610846FEF766F92120FEF7A6FD044657
:102B50000CB12046AFE700203149086026204860CC
:102B6000402088600020C8604FF4806008610846FB
:102B7000FEF750F92620FEF790FD04460CB12046E2
:102B800099E7002700E07F1C01988742FBD3684645
:102B9000FFF7A7FE044603E06846FFF7A2FE0446DF
:102BA0003CB99DF800000728F6D09DF800000628E3
:102BB000F2D020467FE710B51A48006801280BD1F3
:102BC00000201449886040F24C40C8600C20FEF799
:102BD00064FD1549087002E00020134908704FF4A5
:102BE0008070FEF7A5F900214FF48070FEF702F91E
:102BF00001200E4908600C48007810BD01460020F5
:102C000002E04910421CD0B20129FAD170470000FD
:102C1000B824002000800140C0D4010044000020FE
:102C2000582500204C0000205000002054000020B7
:102C30000146012011B1012904D102E020F0010078
:102C400002E001E0012000BF00BF704770B50446FC
:102C5000012514B1012C09D107E0FFF78DFA10B955
:102C600025F0010500E0012502E001E0012500BF9B
:102C700000BF284670BD2DE9F04FADF5017D8146BE
:102C80000C4615461E464FF0040B4FF0000AB9F1F2
:102C9000000F03D0B9F1010F42D140E004F003006E
:102CA000E8B1002711E02A466D1C012301A900208C
:102CB000FFF7E1FF074607B10BE04FF4007201A9EF
:102CC000204603F074F904F50074301EA6F10106E5
:102CD000E9D100BF38460DF5017DBDE8F08F4FF416
:102CE0000070A5FB00713A460B46CDE90006204670
:102CF000FFF72BFC8246BAF1000F07D1FFF7A9FCC2
:102D0000824600BFFFF7A1FA0028FBD1BAF1000FFD
:102D100002D04FF0040B01E04FF0000B03E002E0A3
:102D20004FF0040B00BF00BF5846D4E72DE9F04F29
:102D3000ADF5017D81460C4616461D464FF0040B4D
:102D40004FF0000A25B904200DF5017DBDE8F08F94
:102D5000B9F1000F03D0B9F1010F3FD13DE004F00C
:102D60000300D0B1002711E04FF40072214601A802
:102D700003F01DF93246761C012301A90020FFF75C
:102D8000D5FF074607B105E004F50074281EA5F13C
:102D90000105E9D100BF3846D6E74FF40070A6FB25
:102DA00000713A460B46CDE900052046FFF7CDFC01
:102DB0008246BAF1000F07D1FFF763FD824600BFDC
:102DC000FFF743FA0028FBD1BAF1000F02D04FF011
:102DD000040B01E04FF0000B03E002E04FF0040BA6
:102DE00000BF00BF5846AFE72DE9F04705460E4645
:102DF00014464FF0040915B1012D21D11FE0CEB1C9
:102E0000012E0BD0022E02D0032E14D103E04FF47A
:102E1000007020800FE0012020600CE00D48D0F809
:102E200050C062460023D0E91271384603F08EF894
:102E3000206000E000BF00BF4FF0000903E002E0A7
:102E40004FF0040900BF00BF4846BDE8F0870248C4
:102E500070470000E82400200000214670B50346BA
:102E60000C4603E014F8015B03F8015B151EA2F1A8
:102E70000102F7D170BD30B5034601E003F8011B34
:102E8000141EA2F10102F9D130BDF0B503461C4673
:102E90000D46002000BF161EA2F1010207D014F853
:102EA000017B15F801CBA7EB0C06301EF3D0F0BD6B
:102EB000024600E0521C107810B110788842F9D117
:102EC000107870472DE9F041044600272079F8B1C9
:102ED000E56A607801232A4604F13001FFF726FFF6
:102EE00008B1012714E000202071206A281AA16986
:102EF00088420DD2E67809E0A06905446078012394
:102F00002A4604F13001FFF711FF761E022EF3D29C
:102F10003846BDE8F08170B504460D460026E06AEB
:102F2000A84210D02046FFF7CDFF06465EB9607874
:102F300001232A4604F13001FFF79DFE10B14FF046
:102F4000FF350126E562304670BD70B50446204667
:102F5000FFF7B8FF0546002D59D1207803284FD13F
:102F6000607901284CD16289002104F13000FFF71B
:102F700082FF552184F82E12AA2184F82F125220A4
:102F800084F8300052213120015561213220015551
:102F9000412133200155722184F8141284F815124E
:102FA000412184F81612612184F81712217C84F8DB
:102FB0001812208A010A84F819122069010C84F879
:102FC0001A122069010E84F81B12217B84F81C124E
:102FD000A089010A84F81D12E068010C84F81E1211
:102FE000E068010E84F81F12E069401CE06260781E
:102FF000012304F13001E26AFFF798FE00206071BE
:10300000607800221146FFF7EFFE00B10125284647
:1030100070BD0246891E5069801E884201D800207A
:1030200070479378906A01FB0300F9E72DE9F05FA0
:1030300004460D46022D02D36069A84202D84FF023
:1030400001098FE04FF0FF392078012804D00228D1
:103050003CD003287ED157E02F4607EB5707608905
:10306000B7FBF0F0216A00EB010A51462046FFF75A
:1030700052FF00B175E038467F1C6189B0FBF1F268
:1030800001FB120104F1300010F801806089B7FBE8
:10309000F0F0216A00EB010A51462046FFF73BFFA2
:1030A00000B15EE06089B7FBF0F100FB117104F143
:1030B0003000405C48EA002805F0010010B14FEAFA
:1030C000181001E0C8F30B0081464AE0B4F80AA0EA
:1030D0000AEBDA704010B5FBF0F0216A00EB010B4F
:1030E00059462046FFF717FF00B13AE068006189B2
:1030F000B0FBF1F201FB120104F130000E18307840
:10310000717840EA01292CE0B4F80AA04FEAEA708D
:103110000AEB90708010B5FBF0F0216A00EB010B18
:1031200059462046FFF7F7FE00B11AE0A800618972
:10313000B0FBF1F201FB120104F130000E18F0783F
:103140000006B17840EA0140717840EA0120317808
:10315000084300E002E020F0704902E04FF001096E
:1031600000BF00BF4846BDE8F09F2DE9F05F044670
:103170000E461746022E02D36069B04202D84FF0C5
:103180000208B3E02078012804D0022852D0032896
:1031900072D172E0B14609EB59096089B9FBF0F0D0
:1031A000216A00EB010A51462046FFF7B4FE804633
:1031B000B8F1000F00D098E0484609F10109618993
:1031C000B0FBF1F201FB120104F130000D1806F022
:1031D000010020B1F9B2287861F31F1000E03846F1
:1031E0002870012020716089B9FBF0F0216A00EBA2
:1031F000010A51462046FFF78EFE8046B8F1000FC7
:1032000000D072E06089B9FBF0F100FB119104F18C
:1032100030000D1806F0010010B1C7F3071005E0EB
:10322000287800F0F000C7F303210843287001203C
:1032300020715AE0B4F80AA00AEBDA704010B6FB2D
:10324000F0F0216A00EB010B59462046FFF763FEC0
:103250008046B8F1000F00D047E070006189B0FBF4
:10326000F1F201FB120104F130000D182F70380A41
:1032700068700120207138E034E0B4F80AA04FEA09
:10328000EA700AEB90708010B6FBF0F0216A00EB58
:10329000010B59462046FFF73EFE8046B8F1000F6D
:1032A00000D022E0B0006189B0FBF1F201FB120115
:1032B00004F130000D18E8780006A97840EA0140D2
:1032C000697840EA01202978084300F070400743FC
:1032D0002F70380A6870380CA870380EE87001201A
:1032E000207102E04FF0020800BF00BF4046BDE879
:1032F000F09F2DE9F04104460E46022E02D360698C
:10330000B04201D8022727E0002721E031462046BD
:10331000FFF78CFE054605B91DE0012D01D10227FE
:1033200019E0681C08B9012715E000223146204643
:10333000FFF71BFF074607B10DE02069401C30B1C5
:103340002069401C2061607940F0010060712E46C8
:103350006069B042DAD800BF3846BDE8F0812DE997
:10336000F04704468946B9F1000F06D1E76817B166
:103370006069B84215D8012713E049462046FFF797
:1033800055FE0646022E02D20120BDE8F087701CD1
:1033900008B93046F9E76069B04201D93046F4E730
:1033A0004F463D4600BF6D1C6069A84204D8022507
:1033B000BD4201D90020E8E729462046FFF736FE46
:1033C000064606B909E0701C08B1012E01D130464D
:1033D000DBE7BD42E7D10020D7E700BF6FF07042C6
:1033E00029462046FFF7C1FE8046B8F1000F08D1FC
:1033F000B9F1000F05D02A4649462046FFF7B5FE31
:103400008046B8F1000F0BD1E5602069401C78B10F
:103410002069401E2061607940F00100607107E082
:10342000B8F1010F02D14FF0FF3000E00120054656
:103430002846AAE72DE9F04104460E46E680A56835
:10344000012D03D020684069A84202D80220BDE8BF
:10345000F0812DB920680078032801D12068456AE1
:1034600045B920680089B04201D80220EFE7206802
:10347000476A24E021684889C11700EBD1614911EE
:103480002268927801FB02F812E029462068FFF7D3
:10349000CDFD0546681C08B90120D8E7022D03D3ED
:1034A00020684069A84201D80220D0E7A6EB0806B0
:1034B0004645EAD229462068FFF7ABFD0746E5609E
:1034C0000FB90220C3E721684889C11700EBD16119
:1034D0004911B6FBF1F13944216121684889C117CE
:1034E00000EBD1614911B6FBF1F201FB12612268D8
:1034F000303202EB411161610020A8E72DE9F04173
:1035000004468846E088461CB0B208B1206910B96C
:103510000420BDE8F08121684889C11700EBD16122
:103520004911B6FBF1F201FB1261002971D120694A
:10353000401C2061E06828B920680089B04268D842
:103540000420E6E721684889C11700EBD1614911E1
:10355000B6FBF1F122689278521E1140002958D131
:10356000E1682068FFF762FD0546012D01D80220C1
:10357000CFE7681C08B90120CBE720684069A84262
:1035800041D8B8F1000F01D10420C2E7E1682068FA
:10359000FFF7E5FE05460DB90720BAE7012D01D179
:1035A0000220B6E7681C08B90120B2E72068FFF7DF
:1035B00089FC08B10120ACE721684A8901F130009B
:1035C0000021FFF758FC29462068FFF722FD2168FB
:1035D000C86200270EE00120216808712068FFF70B
:1035E00071FC08B1012094E72068C06A401C216882
:1035F000C8627F1C20688078B842ECD82068C06A16
:10360000C01B2168C862E56029462068FFF701FDFC
:103610002061E68021684889C11700EBD16149111A
:10362000B6FBF1F201FB12612268303202EB41116C
:10363000616100206DE72DE9F04104460E4600214E
:103640002046FFF7F7FE0546EDB9002700BF2169C8
:103650002068FFF760FC054605B113E0606900785B
:10366000E52802D06069007820B9781C0746B0428E
:1036700001D107E0002701212046FFF73FFF054663
:10368000002DE4D000BF042D00D107252846BDE859
:10369000F08110B502468C7ECB7E44EA032013787D
:1036A000032B05D10C7D4B7D44EA032340EA034004
:1036B00010BD81760B0AC3760A0C02750B0E43759A
:1036C00070472DE9F04780460C46A17EE07E41EA36
:1036D000002010B10020BDE8F087207800F03F0006
:1036E000401E00EB800101EBC0064FF001090025F0
:1036F00024E0F848405D205CF649495D2144497862
:1037000040EA0127B9F1000F11D0FF2E0BD2384645
:1037100002F0EAFB82463146761C38F8110002F0CE
:10372000E3FB824501D00020D5E7B94605E04FF61E
:10373000FF70874201D00020CDE76D1C0D2DD8D33E
:10374000207800F0400038B1B9F1000F04D038F80B
:10375000160008B10020BEE70120BCE7F0B5044622
:103760008F7EC87E47EA002008B10020F0BD0878AF
:1037700000F03F00401E00EB800707EBC00201266F
:1037800000231AE0D348C05C085CD24FFF5C0F44B2
:103790007F7840EA07254EB1FF2A01D30020E5E7F4
:1037A0002E461046521C24F8105005E04FF6FF70CC
:1037B000854201D00020D9E75B1C0D2BE2D30878AD
:1037C00000F0400030B1FF2A01D30020CEE70020F6
:1037D00024F812000120C9E7F0B504461D464D73D8
:1037E0000F27CF7200270F738F76BC4681F81BC05E
:1037F000571E07EB870C0CEBC706002738463B46E5
:1038000000BF4FF6FF77B84203D03746761C34F836
:103810001700DFF8C0C21CF803C001F80C00071243
:10382000DFF8B0C21CF803C08C448CF8017008B9F2
:103830004FF6FF705F1C3B460D2FE2D34FF6FF772C
:10384000B84202D034F816700FB942F040020A7044
:10385000F0BD2DE9FF4F83B0074691461E460B226F
:1038600038460499FFF7FAFA052E19D9B04612E046
:1038700039F802BB00250CE0584668F35F0080462B
:103880004FEA6B0B08F4803010B1934888EA0008C7
:103890006D1C102DF0D3B9F800000028E8D1464681
:1038A000072500BF06F00F0000F1300ABAF1390F0A
:1038B00003DD0AF1070000F0FF0A28466D1E01A98A
:1038C00001F800A03609002EECD17E2048550024D6
:1038D0000BE0385D812807DB385DFE2804DC681EBC
:1038E000A04200D106E0641C641CAC4202D2385DE8
:1038F0002028EED100BF00BF082D04D228466D1C41
:1039000001A9095C00E020212046641C3954082CE0
:10391000F2D307B0BDE8F08F30B5014600200B228E
:1039200000BF431003EBC01411F8015B6319D8B258
:10393000531E1A1EF5D130BD2DE9F0470446002173
:103940002046FFF777FD074617B13846BDE8F087F8
:103950004FF0FF09CA464FF6FF70208400BF21696F
:103960002068FFF7D8FA074607B157E065692E7857
:103970000EB9042752E0E87A00F03F08E52E05D0A2
:1039800008F0080040B1B8F10F0F05D04FF0FF0963
:103990004FF6FF7020843AE0B8F10F0F1CD1E069B8
:1039A00078B306F0400030B195F80DA026F040063F
:1039B000B146E08820844E450AD1687B504507D146
:1039C0002946E069FFF77DFE10B1A9F1010000E092
:1039D000FF2000F0FF091AE0B9F1000F05D12846D9
:1039E000FFF79AFF504500D118E0A069C07A00F0B7
:1039F000010038B90B222846A169FFF746FA08B939
:103A00000CE004E04FF0FF094FF6FF702084002126
:103A10002046FFF773FD0746002FA0D000BF3846B1
:103A200094E72DE9F05F04468A464FF0FF09CB4644
:103A3000042753E021692068FFF76DFA074607B1B4
:103A40004FE0666935780DB904274AE0F07A00F056
:103A50003F08E52D0AD02E2D08D028F02000082898
:103A600001D1012000E00020504502D04FF0FF09B5
:103A700029E0B8F10F0F1AD105F0400030B196F8E7
:103A80000DB025F04005A946E08820844D450AD1B7
:103A9000707B584507D13146E069FFF75FFE10B1F2
:103AA000A9F1010000E0FF2000F0FF090BE0B9F1EF
:103AB000000F04D13046FFF72FFF584502D04FF6D4
:103AC000FF7020840DE000212046FFF717FD074618
:103AD00027B106E05260000821100100206900288B
:103AE000A8D100BF0FB1002020613846BDE8F09F8B
:103AF0002DE9FE4F0446D4F81880D4F81C900C220F
:103B000041466846FFF7AAF900BF9DF80B0000F098
:103B1000010020B3002088F80B00E06101260CE0D2
:103B200033464A4669464046FFF793FE2046FFF774
:103B300003FF054605B102E0761C642EF0D300BFFA
:103B4000642E02D10720BDE8FE8F042D01D0284647
:103B5000F9E79DF80B0088F80B00C4F81C909DF85D
:103B60000B0000F0020060B1002600E0761C39F87E
:103B700016000028FAD106F119000D21B0FBF1F76B
:103B800000E0012739462046FFF755FD054645BBB5
:103B9000781E071E25D0E088C11B2046FFF74AFC8F
:103BA0000546F5B9A069FFF7B7FE824600BF216957
:103BB0002068FFF7B0F9054605B111E0FAB25346A7
:103BC0006169E069FFF708FE0120216808710021A2
:103BD0002046FFF793FC054615B9781E071EE6D16F
:103BE00000BFC5B921692068FFF795F9054695B969
:103BF000202200216069FFF73EF90B22D4E905017C
:103C0000FFF72CF9A069C07A00F018006169087309
:103C1000012021680871284695E770B50446E688BA
:103C2000208C4FF6FF72904201D1304600E0208C8C
:103C300001462046FFF7FEFB05460DBB00BF21698C
:103C40002068FFF768F9054605B115E0202200213C
:103C50006069FFF710F9E5206169087001202168AB
:103C60000871E088B04200D306E000212046FFF74B
:103C700045FC0546002DE2D000BF042D00D10225F1
:103C8000284670BD2DE9F05F80460D4605F1090715
:103C9000D8F81000002843D0D8F81440002626E0B9
:103CA0003046761C14F80090B9F1200F00D11EE0C8
:103CB000B9F1050F01D14FF0E509092E02D12E20EF
:103CC00007F8010BB9F1410F0EDBB9F15A0F0BDC0C
:103CD000207B092E01D3102100E00821084018B1F3
:103CE00009F1200000F0FF0907F8019B00BF0B2E2F
:103CF000D6D3E07A2872E07F0106A07F41EA004136
:103D0000607F41EA0020217F08432860217E607E99
:103D100041EA0020A880A17DE07D41EA0020E88002
:103D200000203870A86998B30026AF69D8F8100051
:103D300060B3E86950B3B8F820004FF6FF718842CD
:103D400024D0D8F81CB01BE00021504602F092F8B5
:103D50008246BAF1000F01D1002616E0BAF1FF0F3A
:103D600004DD4FEA2A223046761C3A54E869401EA8
:103D7000B04201D8002608E03046761C07F800A0C3
:103D80003BF8021BB1F1000ADED100BF0020B8559C
:103D9000BDE8F09F2DE9F34F83B081460498006899
:103DA000019002E00198401C0190019800782F28B2
:103DB000F8D0019800785C28F4D0D9F81CA0002530
:103DC0002F4600BF38467F1C01990C5C202C03DB7A
:103DD0002F2C01D05C2C00D132E0FF2D03D3062024
:103DE00005B0BDE8F08FE4B2812C13DBE0B2FE2811
:103DF00010DC38467F1C01990E5C06EB042084B26F
:103E0000402E01DB7E2E05DD802E01DBFE2E01DD46
:103E10000620E5E70121204602F02CF804460CB903
:103E20000620DDE7802C06DA2146F8A0FFF740F8EF
:103E300008B10620D4E728466D1C2AF81040C1E7D7
:103E400000BF0198C11904980160202C01DA0420F8
:103E500000E00020804608E0681E3AF81040202C60
:103E600002D02E2C00D002E06D1E002DF4D100BF38
:103E70000DB90620B4E700202AF815000B222021F6
:103E8000D9F81800FEF7F7FF002700E07F1C3AF88A
:103E900017002028FAD03AF817002E28F6D00FB1D4
:103EA00048F0030800E06D1E25B1681E3AF81000C6
:103EB0002E28F8D10020064602904FF0080B00BFD4
:103EC00038467F1C3AF8104004B963E0202C03D038
:103ED0002E2C04D1AF4202D048F00308F0E702983C
:103EE000584501D2AF4214D1BBF10B0F02D148F0BB
:103EF00003084FE0AF4201D048F00308AF4200D9B9
:103F000048E02F46082002904FF00B0BB006060E3B
:103F1000D6E7802C09DB204601F0E6FF0021009067
:103F200001F0A8FF044648F00208FF2C11DDABF1B8
:103F300001000299884204D848F00308CDF808B07F
:103F4000BEE72212D9F818300298411C02911A5487
:103F500019E024B12146B0A0FEF7AAFF18B15F24F2
:103F600048F003080FE0412C04DB5A2C02DC46F039
:103F7000020608E0612C06DB7A2C04DC46F0010620
:103F8000A4F1200084B2D9F818300298411C0291A3
:103F90001C5495E700BFD9F818000078E52803D134
:103FA0000520D9F818100870BBF1080F01D1B00630
:103FB000060E06F00C000C2803D006F003000328C0
:103FC00001D148F0020808F0020058B906F00300D9
:103FD000012801D148F0100806F00C00042801D196
:103FE00048F00808D9F8180080F80B800020F7E6A0
:103FF0002DE9F3410446019800782F2803D0019859
:1040000000785C2802D10198401C01900020A0603B
:1040100001980078202807D200212046FFF70AFAED
:1040200005460020606128E000BF01A92046FFF797
:10403000B1FE054605B11FE02046FFF77DFC0546B1
:10404000A069C67A3DB1042D04D100BF06F004007A
:1040500000B9052510E006F0040000B10CE0676926
:10406000F87A00F0100008B9052505E03946206807
:10407000FFF70FFBA060D8E700BF2846BDE8FC8132
:1040800070B502464FF0FF301568E5B1116800E0E9
:10409000491C0D78202D02D30D783A2DF8D10D78DA
:1040A0003A2D0FD1146814F8015BA5F130030A2BE7
:1040B00007D28C4205D1022B03D218464D1C29464B
:1040C000156070BD002000BFFBE770B504460D46CB
:1040D00000202071401EE06229462046FEF71BFFAB
:1040E00008B1032070BD94F82E1294F82F0241EA13
:1040F00000204AF65521884201D00220F2E794F8C8
:104100006900010694F8680041EA004194F86700EC
:1041100041EA002094F86610084320F07F404049AF
:10412000884201D10020DDE794F88500010694F86B
:10413000840041EA004194F8830041EA002094F8A9
:104140008210084320F07F403549884201D1002089
:10415000C8E70120C6E72DE9F74F8AB000210A9889
:1041600001600B98FFF78CFF09900998002803DA8B
:104170000B200DB0BDE8F08F2A49099851F8204076
:104180000CB90C20F5E70A980460207878B16078C3
:10419000FEF74EFD814609F0010040B90C9820B1B0
:1041A00009F0040008B10A20E3E70020E1E700205D
:1041B0002070099860706078FEF748FD814609F02C
:1041C000010008B10320D4E70C9820B109F00400E5
:1041D00008B10A20CDE7607804F10A020221FEF757
:1041E00003FE38B96089B0F5007F03DB6089B0F564
:1041F000805F01DD0120BCE7002739462046FFF73C
:1042000064FF0546012D0FD0D5BB41E0222A3A3C80
:104210003E3F7C7F000000002B2C3B3D5B5D00009F
:10422000464154005800002000261AE004F5F770BB
:1042300000EB061898F8040070B198F80B0001061E
:1042400098F80A0041EA004198F8090041EA002084
:1042500098F80810084300E0002002A941F8260061
:10426000761C042EE2D3002606B1761E00BF02A8FB
:1042700050F826702FB139462046FFF726FF01E09F
:1042800006E0022005461DB1701C06460428EED348
:10429000032D01D101206CE70DB10D2069E73B2012
:1042A000015D94F83C0041EA00206189884201D018
:1042B0000D205EE74620015D94F8470041EA002AA0
:1042C000BAF1000F0ED194F85700010694F8560089
:1042D00041EA004194F8550041EA002094F8541056
:1042E00040EA010AC4F818A04020005DE070E078C0
:1042F000012804D0E078022801D00D2039E7E078C9
:104300000AFB00FA3D20005DA070A07818B1A078EB
:10431000411E084008B10D202BE74120015D94F8B3
:10432000420041EA002020816089C11700EBD16181
:104330004911228992FBF1F301FB132109B10D20F0
:1043400017E74320015D94F8440041EA00200890FB
:10435000089870B994F85300010694F8520041EAA5
:10436000004194F8510041EA002094F850100843AD
:1043700008903E20015D94F83F0041EA0020019042
:10438000019808B90D20F4E66089C11700EBD161EE
:104390004911228992FBF1F201995144114407918C
:1043A000DDE90710884201D20D20E2E6DDE90710C1
:1043B000401AA178B0FBF1FBBBF1000F01D10D2039
:1043C000D7E6012540F6F670834500D302254FF667
:1043D000F670834500D303250BF102006061E761AD
:1043E00001983844206207983844A062032D16D102
:1043F000208908B10D20BCE694F85F00010694F80E
:104400005E0041EA004194F85D0041EA002094F822
:104410005C100843606260698000069014E02089A7
:1044200008B90D20A5E6206A50446062022D02D131
:104430006069400007E0207D00F00100616901EB48
:10444000410100EB510006906089401E0699084426
:104450006189B0FBF1F0A169884201D90D2088E69D
:104460004FF0FF302061E06080206071032D5AD151
:1044700094F8601094F8610041EA0020012852D1BC
:10448000791C2046FEF747FDE8BB0020607194F8D8
:104490002E1294F82F0241EA00204AF65521884254
:1044A00041D13320005D01063220005D41EA004128
:1044B0003120005D41EA002094F830100843F549AE
:1044C000884230D194F81702010694F8160241EAA6
:1044D000004194F8150241EA002094F814120843B0
:1044E000ED4988421FD194F81B02010694F81A0284
:1044F00041EA004194F8190241EA002094F81812A8
:104500000843206100E00EE094F81F02010694F8D1
:104510001E0241EA004194F81D0241EA002094F88D
:104520001C120843E0602570DC480088401C80B203
:10453000DA490880E08000201BE670B505462C466D
:1045400084B1206870B12068007858B12068C088B4
:10455000A188884206D121684878FEF769FB00F0FF
:10456000010008B1092070BD0020FCE7F7B582B05A
:1045700016460398019001A8FFF782FD0546002D1D
:1045800002DA0B2005B0F0BDC54850F825400CB14B
:1045900000202070029810B1002002990870C049D4
:1045A000029841F82500029808B1012E01D00020A0
:1045B000E8E7002203A902A8FFF7CDFD0746384629
:1045C000E0E72DE9F743ADF50C7D0546164625B924
:1045D00009200DF50F7DBDE8F0830020286006F06E
:1045E0001F0626F001028DA983A8FFF7B4FD074638
:1045F000002F74D180A88990CDF828D283A88D99F6
:10460000FFF7F6FC0746889C0FB904B9062706F0A9
:104610001C0000285CD04FB1042F03D183A8FFF702
:1046200067FA074646F00806889C09E0E07A00F041
:10463000110008B1072703E006F0040000B10827C5
:10464000002F55D106F00800002851D0FEF7FFFBDF
:10465000804684F80E804FEA1821E1734FEA184132
:1046600021744FEA1861617484F816804FEA1821AA
:10467000E1754FEA184121764FEA18616176002012
:10468000E072207700216177A177E1772146839856
:10469000FEF7FFFF814600212046FFF70AF80120C0
:1046A00083990871B9F1000F22D08398D0F82C803B
:1046B00049468398FEF71DFE0746CFB9A9F10100D0
:1046C0008399C86041468398FEF725FC07460FE0B2
:1046D00077B9E07A00F0100010B1042708E02DE06F
:1046E00006F0020020B1E07A00F0010000B10727D7
:1046F00047B906F0080008B146F020068398C06A62
:10470000E8612C62D7B9AE710020E8712146839828
:10471000FEF7BFFF2861E07F0106A07F41EA00416C
:10472000607F41EA0020217F0843E8600020A86004
:10473000A861839828602868C088A880384648E720
:104740002DE9FF4F85B0044615469A46DDF818B0AE
:104750000020CAF800002046FFF7EFFE04900498FE
:1047600018B1049809B0BDE8F08FE07908B1E0799C
:10477000F8E7A07900F0010008B90720F2E7D4E9D2
:104780000210401A02900298854200D9029DC2E0B0
:1047900021684989A068B0FBF1F201FB12000028F2
:1047A00077D121684989A068B0FBF1F02168897848
:1047B000491E084000F0FF09B9F1000F17D1A068A9
:1047C00010B92069039004E061692068FEF72EFCAF
:1047D00003900398022802D20220E071C2E70398F6
:1047E000401C10B90120E071BCE703986061616969
:1047F0002068FEF70EFC064616B90220E071B1E70C
:104800004E4420684089B5FBF0F8B8F1000F2DD078
:1048100009EB080021688978884203D920688078EC
:10482000A0EB090821684878434632465946FEF70E
:1048300022FA10B10120E07194E7A07900F0400065
:1048400078B1A069801B40450BD2A169891B236800
:104850005B8901FB03B021684A8904F12401FEF75A
:10486000FDFA2068408900FB08F74AE0A069B042E1
:1048700028D0A07900F04000C0B121684878012319
:1048800004F12401A269FEF751FA58B10120E07148
:1048900068E718E052526141727241616000002085
:1048A00058000020A07920F04000A07121684878CD
:1048B0000123324604F12401FEF7DDF910B1012095
:1048C000E0714FE7A66121684989A068B0FBF1F269
:1048D00001FB1200216849890F1AAF4200D92F4607
:1048E00021684989A068B0FBF1F201FB120104F1D3
:1048F000240008443A46014601905846FEF7AEFAB5
:1049000000BFBB44A0683844A060DAF80000384417
:10491000CAF80000ED1B002D7FF43AAF002021E71C
:104920002DE9FF4F83B0044615469B46049801903D
:104930000020CBF800002046FFF7FFFD0290029810
:1049400018B1029807B0BDE8F08FE07908B1E079BE
:10495000F8E7A07900F0020008B90720F2E7A068A4
:104960002844A168884200D20025CFE02168498907
:10497000A068B0FBF1F201FB120000287ED1216893
:104980004989A068B0FBF1F021688978491E084088
:1049900000F0FF0ABAF1000F1ED1A06838B92769EC
:1049A00057B900212068FEF7DAFC074604E0616988
:1049B0002068FEF7D4FC074607B9AAE0012F02D110
:1049C0000220E071BEE7781C10B90120E071B9E760
:1049D0006761206900B92761A07900F0400078B1D3
:1049E00021684878012304F12401A269FEF79EF9A9
:1049F00010B10120E071A5E7A07920F04000A0717E
:104A000061692068FEF705FB064616B90220E071D1
:104A100098E7564420684089B5FBF0F9B9F1000FDA
:104A200031D00AEB090021688978884203D92068CF
:104A30008078A0EB0A09216848784B4632460199F4
:104A4000FEF774F910B10120E0717BE7A069801BCB
:104A5000484511D2A069831B2068B0F80AC00198AC
:104A600003FB0C012068428904F12400FEF7F6F9EB
:104A7000A07920F04000A071206800E017E0408994
:104A800000FB09F835E0A069B0420FD0D4E902017B
:104A900088420BD2216848780123324604F1240170
:104AA000FEF7E9F810B10120E0714BE7A66121683B
:104AB0004989A068B0FBF1F201FB12002168498925
:104AC000A1EB0008A84500D9A84621684989A0683B
:104AD000B0FBF1F201FB120104F12400084442464C
:104AE00000900199FEF7BAF9A07940F04000A0715A
:104AF00000BF019840440190A0684044A060DBF8EA
:104B000000004044CBF80000A5EB0805002D7FF421
:104B10002DAF00BFD4E90201884201D9A068E0604E
:104B2000A07940F02000A07100200BE72DE9F041B2
:104B300004462046FFF701FD0746002F4CD1A0791F
:104B400000F02000002847D0A07900F0400078B1A4
:104B500021684878012304F12401A269FEF7E6F8F0
:104B600010B10120BDE8F081A07920F04000A071D3
:104B7000E1692068FEF7CFF90746002F2CD1256A9E
:104B8000E87A40F02000E872207B2877A089010AAB
:104B90006977E068010CA977E068010EE97728469B
:104BA0002169FEF786FDFEF752F90646AE75310A19
:104BB000E975310C2976310E69760020A874002140
:104BC000E974A07920F02000A0710120216808710B
:104BD0002068FEF7BAF907463846C3E770B50546C0
:104BE0002846FFF7A3FF044634B92846FFF7A5FC83
:104BF00004460CB900202860204670BD2DE9F0471E
:104C000004460E462046FFF798FC8246BAF1000F94
:104C100002D05046BDE8F087E07908B1E079F9E7C5
:104C2000E068B04204D2A07900F0020000B9E66862
:104C3000D4F808904FF00008C4F80880002E71D016
:104C4000206880782168498900FB01F7B9F1000FDD
:104C500011D0701EB0FBF7F1A9F10100B0FBF7F025
:104C6000814208D3A9F10100791E8843A060A068A1
:104C7000361A656912E025697DB900212068FEF7C2
:104C80006EFB0546012D02D10220E071C2E7681CCF
:104C900010B90120E071BDE725616561002D41D0AB
:104CA00023E0A07900F0020038B129462068FEF721
:104CB00056FB054635B93E4619E029462068FEF701
:104CC000B5F90546681C10B90120E071A2E7012D75
:104CD00003D920684069A84202D80220E07199E710
:104CE0006561A0683844A060F61BBE42D9D800BFF9
:104CF000A0683044A06020684089B6FBF0F100FB5A
:104D0000116078B129462068FEF783F98046B8F132
:104D1000000F02D10220E0717CE720684089B6FBD9
:104D2000F0F0804421684989A068B0FBF1F201FBF2
:104D3000120020B3A069404521D0A07900F04000C6
:104D400078B121684878012304F12401A269FDF7B4
:104D5000EDFF10B10120E0715CE7A07920F0400088
:104D6000A071216848780123424604F12401FDF72F
:104D700082FF10B10120E0714CE7C4F81880D4E93B
:104D80000201884205D9A068E060A07940F02000C7
:104D9000A07150463EE733B5ADF5057D04461CB91C
:104DA00009200DF5077D30BD002286A984A8FFF7F4
:104DB000D2F905462DBB8498206081A8A06101A886
:104DC000E06120468699FFF713F90546B5B9606999
:104DD00058B16069C07A00F0100028B16169849808
:104DE000FEF757FCA06000E005253DB98498C08817
:104DF000A08000212046FEF71DFB0546042D00D1B2
:104E000005250DB1002020602846CAE770B504468C
:104E10002046FFF792FB05460DB90020206028468A
:104E200070BD70B5ADF5047D04460E462046FFF713
:104E300084FB05461DBB2EB900212046FEF7FAFA79
:104E400005461CE081A8A06101A8E0610021204680
:104E5000FEF7E7FD0546042D02D100202061002564
:104E60006DB931462046FEF70DFF00212046FEF7C2
:104E700045FB0546042D02D100202061002528466F
:104E80000DF5047D70BD33B5ADF50D7D0D460022E9
:104E90008DA984A8FFF75FF9044694B981A88A9088
:104EA00001A88B9084A88D99FFF7A2F8044644B915
:104EB000899828B12DB1294684A8FEF7E3FE00E0C9
:104EC000062420460DF50F7D30BD2DE9F74F82B049
:104ED0008A46002202A90498FFF73DF90190049840
:104EE0000468019800286DD1D4E90410801E814225
:104EF00003D82069CAF8000064E094F800B00026E6
:104F0000BBF1010F1CD1022700BF39462046FEF736
:104F10008DF8804608F1010010B9012001900EE0E3
:104F2000B8F1010F02D10220019008E0B8F1000FA2
:104F300000D1761C781C074661698842E5D33AE0C7
:104F40006769206A00904FF00009002500BFB9F1A1
:104F5000000F0ED10098421C014620460092FDF73A
:104F6000DAFF0190019800B124E004F13005B4F8B3
:104F70000A90BBF1020F09D12878697840EA012034
:104F800000B9761CAD1CA9F1020910E0E878000612
:104F9000A97840EA0140697840EA0120297808436D
:104FA00020F0704000B9761C2D1DA9F10409781E6F
:104FB000071ECCD100BF2661607940F0010060710E
:104FC000CAF80060019805B0BDE8F08F70B50446DE
:104FD0002046FFF7B2FA054645B9E07908B1E57910
:104FE00004E0A07900F0020000B90725002D47D1A8
:104FF000D4E90210884241D9A068E060A07940F06D
:105000002000A071A06838B921692068FEF771F905
:105010000546002020611DE061692068FEF706F862
:1050200006460025701C00B90125012E00D102257D
:1050300085B920684069B0420CD96FF0704261694F
:105040002068FEF792F8054625B931462068FEF73C
:1050500050F9054695B9A07900F0400070B121687B
:105060004878012304F12401A269FDF75FFE08B12D
:10507000012503E0A07920F04000A07105B1E571A1
:10508000284670BD71B5ADF5157D0026012295A9A4
:105090008CA8FFF760F80446002C46D180A89290B7
:1050A000CDF84CD28CA89599FEF7A2FF044600BF1C
:1050B000002C3AD1919D0DB9062404E0E87A00F065
:1050C000010000B10724FCB929468C98FEF7E1FAEB
:1050D0000646CEB1E87A00F01000A8B124228CA9CF
:1050E00083A8FDF7BBFE8596022183A8FEF7A2F9EF
:1050F00004464CB9002183A8FEF793FC044604B98A
:105100000724042C00D100247CB98CA8FEF785FD6F
:1051100004462CB926B131468C98FEF7EAF80446CD
:105120001CB98C98FDF711FF044620460DF5167D3D
:1051300070BD2DE9F147ADF50D7DFDF788FE064602
:1051400001228DA984A8FFF706F80546002D6FD12E
:1051500081A88A9001A88B9084A88D99FEF748FFBA
:10516000054605B9082500BF042DF0D1002184981B
:10517000FEF7F5F80746002507B90725012F00D1EE
:105180000225781C00B901251DB98498FDF79AFE07
:105190000546002D5BD139468498FDF73AFF8146DC
:1051A000849800F130048498428900212046FDF75C
:1051B00062FE0B2220212046FDF75DFE2E2020708E
:1051C0001020E072A675310AE175310C2176310E9E
:1051D000617639462046FEF76CFA2022214604F11A
:1051E0002000FDF73BFE2E2084F82100DDF818A2F8
:1051F00084980078032804D18498406A504500D1EF
:10520000AA46514604F12000FEF753FA849890F81C
:10521000028018E08498C0F82C9009F1010901205F
:10522000849908718498FDF74DFE05460DB10DE097
:105230002DE08498428900212046FDF71CFEA8F14C
:10524000010000F0FF08B8F1000FE3D100BF1DB965
:1052500084A8FEF74DFC054625B139468498FEF733
:1052600048F814E0899C1020E072A675310AE175B7
:10527000310C2176310E617639462046FEF719FA57
:105280000120849908718498FDF75FFE0546284641
:105290000DF50E7DBDE8F087F7B5ADF50C7D0F4639
:1052A000144601228CA983A8FEF755FF0646EEB9E5
:1052B00080A88990CDF828D283A88C99FEF798FE13
:1052C000064600BF96B9889D0DB906260EE004F08B
:1052D000270407EA0400E97AA1430843E8720120A1
:1052E000839908718398FDF730FE064630460DF528
:1052F0000F7DF0BDF3B5ADF51B7D01229BA992A8F2
:10530000FEF729FF0446002C75D19298899080A859
:105310009890CDF864D292A89B99FEF769FE044656
:1053200000BF002C67D1979808B9042463E09798D0
:1053300000F10B01152283A8FDF790FD242292A90C
:1053400089A8FDF78BFD9CA8FEF79AFE002805DBD7
:1053500089A89C99FEF74CFE044600E00B2404B992
:105360000824042C47D189A8FEF7C2FB0446002C70
:1053700041D18E9D13220DF20E2105F10D00FDF796
:105380006DFD9DF80C0240F02000E872012092991A
:105390000871E87A00F0100018B38B99949888424D
:1053A0001FD029469298FEF774F90746394692981D
:1053B000FDF72FFE06460EB9022412E03146929800
:1053C000FDF7A9FD0446929800F150054CB96878A4
:1053D0002E2806D128468B99FEF76BF90120929969
:1053E000087144B992A8FEF718FC04461CB99298BB
:1053F000FDF7ABFD044620460DF51D7DF0BD73B5F0
:10540000ADF50C7D0D4601228CA983A8FEF7A3FE05
:105410000646FEB980A88990CDF828D283A88C9939
:10542000FEF7E6FD064600BFA6B9889C0CB9062625
:1054300010E0A879A075E8880112E1752879207636
:10544000A888011261760120839908718398FDF77D
:105450007CFD064630460DF50E7D70BD2DE9F74FFB
:1054600090B091461198012803DD132013B0BDE8D8
:10547000F08F10A8FEF704FE0F900F98002801DAB5
:105480000B20F3E7FA490F9851F820500DB90C2082
:10549000ECE7002028700F98C0B20C9000200B9011
:1054A0000C98FDF7D3FB0190019800F0010008B1C2
:1054B0000320DBE7019800F0040008B10A20D5E7DB
:1054C00005F10A0202210C98FDF78EFC38B96889B3
:1054D000B0F5805F03DC6889B0F5007F01DA012058
:1054E000C4E700BF04AA01210C98FDF77DFC10B9A8
:1054F0000498802801D20120B8E7119808B1002053
:1055000000E03F2082460498A0EB0A000490A9F135
:10551000010000EA090008B14FF00009B9F1000FDD
:105520001AD16889C11700EBD15149124FF4FA62C0
:1055300092FBF1F1049AB2FBF1F10A914FF0000BEA
:1055400001E00BF1010BCB4830F81B100A988142A7
:10555000F7D8C94830F81B90B9F5007F02D36889A5
:10556000B9FBF0F9B9F1000F01D14FF00109B9F120
:10557000800F01D94FF080090498B0FBF9F801269B
:1055800040F6F670804500D302264FF6F67080454F
:1055900000D30326032E0CD1082000EB8800698974
:1055A0000844401EB0FBF1F7202003900020029039
:1055B00019E0012E05D108EB4800401C4008C01C32
:1055C00002E04FEA4800001D074668893844401E43
:1055D0006989B0FBF1F70120039068894FF480419D
:1055E000B1FBF0F0029003985044079007983844BC
:1055F0000690029906980844059005984844A0EB47
:105600000A000499884201D90E202FE709AA032134
:105610000C98FDF7E9FB28B9099818B10998B0F57D
:10562000004F01D901200990099905980844401EAE
:10563000491E8843099009990598081A0990032E74
:1056400008D10999039808440390099907980844D8
:10565000079001E009980744DDE90301081AC11B1E
:105660000298081AB0FBF9F8022E03D140F6F67042
:10567000804505D3032E05D14FF6F670804501D243
:105680000E20F3E6032E02D10C200D9010E0012E27
:1056900006D10498B0F5803F02D201200D9007E0BA
:1056A0000498B0F5803F01D2042000E006200D9060
:1056B00000BF119810B1F0200E9043E06A890021DC
:1056C00005F13000FDF7D7FB05F5F7740120607098
:1056D000A0700020E0700D982071FE206071049889
:1056E00050443F21B0FBF1F0FF21B0FBF1F00990F5
:1056F0003F21099841EA9000A0710998E0713F208C
:10570000207200216172A172E172049820730498E2
:10571000010A61730498010CA1730498010EE173EE
:10572000552185F82E12AA2185F82F120123002277
:1057300005F130010C98FDF7F9FA08B1012095E662
:10574000F8200E9005F130046A8900212046FDF70B
:1057500092FB0B2249A12046FDF780FBB5F80AB069
:1057600084F80BB04FEA1B21217384F80D90039845
:10577000A0730398010AE17301202074032E01D164
:10578000002001E04FF40070834684F811B04FEA26
:105790001B21A1740498B0F5803F05D20498E074F1
:1057A0000498010A217510E0049884F820000498F8
:1057B000C0F30721212001550498C0F3074122209E
:1057C00001550498010E232001550E9860753F2065
:1057D000207600216176FF20A076E17684F81CA077
:1057E0004FEA1A2161774FEA1A41A1774FEA1A610D
:1057F000E177FDF72CFB0990032E4BD1099884F833
:1058000043000998C0F30721442001550998C0F3CB
:105810000741452001550998010E4620015584F89D
:105820002470C7F3072125200155C7F3074126201F
:105830000155390E27200155022084F82C00002143
:105840002D2001552E2001552F200155012084F8CF
:10585000300031200155062084F8320033200155F4
:10586000802084F84000292084F8420013220BE0B5
:10587000580000206060000876600008EBFE904D44
:1058800053444F53352E3000F7A104F14700FDF784
:10589000E5FA1FE0099884F827000998C0F307216A
:1058A000282001550998C0F307412920015509987E
:1058B000010E2A200155A775390AE175802084F868
:1058C0002400292084F826001322ECA104F12B00E7
:1058D000FDF7C4FA552084F8FE01AA2140F2FF101A
:1058E00001550123524621460C98FDF71FFA08B1D5
:1058F0000120BBE5032E06D101230AF10602214651
:105900000C98FDF713FA079808904FF0000B5FE032
:105910006A8900212046FDF7AEFA0E980990032E01
:1059200014D0012E01D1DA4801E06FF0FF0009998F
:1059300008430990099820700998000A6070099836
:10594000000CA0700998000EE07019E0099860F052
:10595000FF000990099820700998000A6070099862
:10596000000CA0700998000EE070FF202071FF214C
:105970006171A171E17120726172A1720F21E172F6
:105980000898411C02460123089121460C98FDF716
:10599000CDF908B1012069E56A8900212046FDF7AB
:1059A0006AFA012009900EE00898411C0246012382
:1059B000089121460C98FDF7B9F908B1012055E589
:1059C0000998401C09900998B842EDD30BF1010BDE
:1059D000BBF1000F9CD0032E01D1484600E0029895
:1059E000834600BF0898411C0246012308912146C6
:1059F0000C98FDF79BF908B1012037E5ABF10100E8
:105A0000B0F1000BEED1032E49D15220207060700E
:105A10006120A0704120E070722084F8E4017221BE
:105A200040F2E51001554121401C01556121401C07
:105A30000155A8F1010084F8E801C0F3072140F204
:105A4000E9100155A8F10100C0F307414FF4F570CA
:105A50000155A8F10100010E40F2EB1001550220A2
:105A600084F8EC01002140F2ED100155401C015575
:105A7000401C0155552084F8FE01AA2140F2FF1078
:105A8000015501230AF1010221460C98FDF74EF958
:105A900001230AF1070221460C98FDF747F900227D
:105AA00011460C98FDF7A0F908B10120DEE40020B2
:105AB000DCE42DE9FC4707468846914600243E4633
:105AC00013E06B46012201A94846FEF739FE009813
:105AD000012800D00DE09DF8045000BF06F8015BDE
